:100000000C943C040C9459040C9459040C94590419
:100010000C9459040C9459040C9459040C945904EC
:100020000C9459040C9459040C9405170C94C116A3
:100030000C94C5270C9459040C9459040C9459043D
:100040000C9459040C9459040C9459040C945904BC
:100050000C9459040C94DC170C9459040C94590416
:100060000C9459040C9459040C9459040C9459049C
:100070000C9459040C9459040C9459040C9459048C
:100080000C9459040C9459040C9459040C9459047C
:100090000C9459040C9459040C9459040C9459046C
:1000A0000C9459040C9459040C9459040001010156
:1000B0000101010101010202020202020202020325
:1000C00003030303030303040404040404040505F5
:1000D00005050506060606060707070707080808B8
:1000E00008090909090A0A0A0B0B0B0C0C0C0D0D67
:1000F0000D0E0E0E0F0F0F101011111112121313FF
:100100001414151516161717181819191A1A1B1B77
:100110001C1D1D1E1E1F20202122222324242526D3
:1001200026272829292A2B2C2D2D2E2F303132320B
:10013000333435363738393A3B3C3D3E3F40414217
:10014000434445464748494A4C4D4E4F50515354FD
:10015000555658595A5B5D5E5F61626465666869B1
:100160006B6C6D6F7072737577787A7B7D7E808231
:10017000838587888A8C8E8F91939596989A9C9E7A
:10018000A0A2A3A5A7A9ABADAFB1B3B5B7BABCBE8A
:10019000C0C2C4C6C9CBCDCFD1D4D6D8DBDDDFE257
:1001A000E4E7E9EBEEF0F3F5F8FAFDFFFFAA7F557F
:1001B000402223252628292A2C2D2F30323335366C
:1001C000383A3B3D3E4042434547494A4C4E5051E8
:1001D000535557595A5C5E6062646668696B6D6F0F
:1001E00071737577797B7D7F81838587898A8C8E12
:1001F00090929496989A9C9E9FA1A3A5A7A8AAAC1A
:10020000AEAFB1B3B4B6B8B9BBBCBEBFC1C2C3C553
:10021000C6C7C9CACBCCCDCED0D1D2D2D3D4D5D6F5
:10022000D7D7D8D9D9DADADBDBDBDCDCDCDCDCDD28
:10023000DDDDDDDCDCDCDCDCDBDBDBDADAD9D9D80C
:10024000D7D7D6D5D4D3D2D2D1D0CECDCCCBCAC9A4
:10025000C7C6C5C3C2C1BFBEBCBBB9B8B6B4B3B1D3
:10026000AFAEACAAA8A7A5A3A19F9E9C9A9896946E
:1002700092908E8C8A89878583817F7D7B79777543
:1002800073716F6D6B6968666462605E5C5A595722
:10029000555351504E4C4A4947454342403E3D3BE1
:1002A0003A3836353332302F2D2C2A29282625236B
:1002B000220000000000000000000000000000001C
:1002C00000000000007E0F00D4FFFFFFC700000009
:1002D0007800000000000000002A2B280000000029
:1002E00000000000000000000000000029000000E5
:1002F000002C1E3420212224342627252E362D378B
:1003000038271E1F202122232425263333362E375B
:10031000381F0405060708090A0B0C0D0E0F1011F3
:1003200012131415161718191A1B1C1D2F31302300
:100330002D350405060708090A0B0C0D0E0F1011C8
:1003400012131415161718191A1B1C1D2F313035CE
:100350004C29003900E200A800354100001E0014BD
:100360000004001C0034004D001F001A0016001B82
:10037000003802E3002000080007000600E0004CFF
:100380000021001500090019002A004A0022001768
:10039000000A00050000006564AA00015800000280
:1003A000580000E300A9000158000003580000E2D3
:1003B0000023001D000B001100000029612400181B
:1003C000000D0010002C004B0025000C000E003624
:1003D000001E022800260012000F00370051002BDB
:1003E0000027001300330038712F004E002D00311C
:1003F000003468E500300000002E0001000100011B
:1004000000010000003A001E02200222022E002FEE
:100410005D3B001F02210223020100CA5C3C002F49
:100420000226022F000100CB5C3D00300227023083
:100430000001002E5D3E003102350035020000C48F
:100440005C010001000000010000002D5D010001C1
:1004500000000001000000C35C3F002E022D0025BB
:100460000200002C5D4000240021001E000100015C
:10047000004100250022001F002700C65C42002624
:1004800000230020003700C75C430024022E003107
:1004900000010001004400450001000100010000CE
:1004A00000010001002B00E200E000000001001448
:1004B0000050001D00095D01000100520051001BA9
:1004C0000001000100010008004F000600010001CA
:1004D0000001001500090019002C000100010001B5
:1004E0000001000100000001000100010000000106
:1004F00000000001000100010000000100000001F7
:100500000001000100500001000000010001000195
:100510000051000100010001000100010052000132
:100520000001000100010001004F00010001000175
:1005300000010001000100010001000100005C0158
:1005400000010001000100000001000100010001A4
:10055000000100000001000100141401000100016D
:10056000000100010016140100010001000100015A
:100570000001000100010001000100010001000173
:100580000001000100010001000100010000000164
:100590000001000100000001000000010001000155
:1005A0000000000100000001000100010001000145
:1005B000000000010001001C140100010001000105
:1005C0000001000100010001000100010001001311
:1005D00014010001000100010001000100010001FF
:1005E0000001000100010001000100010001000004
:1005F0000032190A00047F3F1F64321464321478F9
:100600003C1E1E140A050A00000000000306B2008A
:10061000080001000000A800080002000200A0007D
:100620001400030057494E555342000000000000DB
:10063000000000008400040007002A004400650058
:10064000760069006300650049006E007400650073
:1006500072006600610063006500470055004900B4
:1006600044007300000050007B0039004400420049
:10067000370046003100460044002D003700450099
:10068000370041002D0034003000300038002D00CC
:1006900039003300360042002D0036004200410090
:1006A000360043003100390041003300300038008B
:1006B00063007D00000000001B0301636F6E66692C
:1006C000677572652E6572676F646F782D657A2E17
:1006D000636F6D0005010980A101850319012AB727
:1006E00000150126B700950175108100C0050C09A1
:1006F00001A101850419012AA002150126A0029575
:100700000175108100C005010906A10185050507D5
:1007100019E029E7150025019508750181020507F3
:10072000190029EF1500250195F0750181020508D2
:10073000190129059505750191029501750391012E
:10074000C005010906A101050719E029E7150025E3
:100750000195087501810295017508810105071948
:100760000029FF150026FF00950675088100050881
:1007700019012905950575019102950175039101EE
:10078000C009025200030100A0FA0904000001039D
:100790000101000921110100012240000705810328
:1007A00008000A09040100010300000009211101E9
:1007B0000001226D000705820320000A09040200DF
:1007C00002FF00000007058303400005070504033E
:1007D000400005120110020000000897327549011F
:1007E000000102000122034500720067006F00440F
:1007F000006F007800200045005A00200053006878
:100800000069006E006500000030035A005300418B
:1008100000200054006500630068006E006F006CEB
:10082000006F006700790020004C006100620073D7
:1008300000200049006E0063000000040309040565
:100840000F3900021C100500DF60DDD88945C74C58
:100850009CD2659D9E648A9F00000306B2004500FD
:100860001810050038B60834A909A0478BFDA076FA
:100870008815B6650001420011241FBECFEFDAE0F3
:10088000DEBFCDBF23E0A6E9B1E001C01D92A335D4
:10089000B207E1F711E0A0E0B1E0E4EAFCE502C054
:1008A00005900D92A639B107D9F70E940D240C943A
:1008B000112E0C940000E8EDF0E080818E7F8083A3
:1008C0001092E2001092DA001092E100A0EEB0E087
:1008D0008C9181608C9380818F77808319BCA7ED88
:1008E000B0E08C918E7F8C9380818F7E808310927C
:1008F000190308952091E4003091E50095E6A901DF
:100900002091EC00822F817020FF06C08091E800CA
:1009100080FF06C080E008952091E80022FD1AC003
:1009200080913E03882389F0853089F08091EB0027
:1009300085FD0FC02091E4003091E5004217530778
:10094000F9F29150E1F684E0089582E0089583E0A1
:10095000089581E00895EF92FF920F931F93CF9334
:100960007C018B010E947A04C82F882371F08C2FA0
:10097000CF911F910F91FF90EF900895F701819112
:100980007F018093F100015011090115110579F3E0
:100990008091E80085FDF2CF8091E8008E7780930A
:1009A000E8000E947A04882381F3C82FE0CF809169
:1009B000400387FF13C08091E80082FF06C080914A
:1009C000E8008B778093E80004C080913E0381119A
:1009D000F2CF089580913E038823D9F38091E800F7
:1009E00080FFF8CF8091E8008E77ECCF982F90931E
:1009F000E900242F762F50E0891731F07091EC0038
:100A00002091ED005091F00021FD07C09F5F9730CD
:100A100071F78093E90081E008953091EB003E7F0B
:100A20003093EB003091ED003D7F3093ED0030913D
:100A3000EB0031603093EB007093EC002093ED00FD
:100A40005093F0002091EE0027FDE0CF80E0089564
:100A5000CF92DF92EF92FF920F931F93CF93DF938A
:100A6000C8EDD0E088818F7E8883E7EDF0E080815B
:100A70008160808384E082BF81E080931903888154
:100A80008E7F888302EE10E0F80110821092DA0067
:100A900081EEC82ED12CF601108288818F77888351
:100AA00088818068888388818F7D888319BC1092B3
:100AB0003E0310923F0310923D0310923C0390EED0
:100AC000E92EF12CF70180818B7F80838881816002
:100AD000888342E060E080E00E94F604F6018081B5
:100AE0008E7F8083F801808181608083808188602F
:100AF0008083F70180818E7F8083888180618883F5
:100B0000DF91CF911F910F91FF90EF90DF90CF90E9
:100B10000895FC018091460390914703861797073B
:100B2000A0F06115710529F48091E8008E7780931B
:100B3000E80090E06115710551F4911108C08091B1
:100B4000E80082FF35C080E00895BC01F2CF8091BB
:100B50003E038823C9F18530C9F18091E80083FD07
:100B600031C08091E80082FDEACF8091E80080FFEB
:100B7000E1CF8091F3002091F200382F61157105CB
:100B800019F02830310558F091E02830310509F08E
:100B900090E08091E8008E778093E800CBCF84913D
:100BA0008093F1003196615071092F5F3F4FE6CF7E
:100BB00080913E03882341F0853041F08091E80028
:100BC00083FFBDCF81E0089582E0089583E008951A
:100BD000FC01809146039091470386179707A0F088
:100BE0006115710529F49091E8009E779093E800D3
:100BF00090E06115710551F4911108C08091E800F1
:100C000082FF34C080E00895BC01F2CF80913E03A2
:100C10008823C1F18530C1F18091E80083FD30C0A7
:100C20008091E80082FDEACF8091E80080FFE1CF6B
:100C30008091F3002091F200382F6115710519F0B1
:100C40002830310558F091E02830310509F090E066
:100C50002091E8002E772093E800CBCF81918093FC
:100C6000F100615071092F5F3F4FE7CF80913E0344
:100C7000882341F0853041F08091E80083FFBECFAA
:100C800081E0089582E0089583E00895089508952D
:100C900080911B03089520913E03243099F423E0B2
:100CA0002093E90070E050E040E00E94AB0488230C
:100CB00021F010921703109218038091E8008E77AC
:100CC0008093E8000895209127012223C9F0209104
:100CD000DF0227FF15C0E62FE695E695E695EE3193
:100CE000D8F4E80FF92FF11D677021E030E001C062
:100CF000220F6A95EAF7209582812823228308959E
:100D0000FC01329608962191621303C0DF0111970E
:100D10001C92E817F907B9F70895209127012223BB
:100D2000C1F02091DF0227FF14C0E62FE695E6957B
:100D3000E695EE31F8F4E80FF92FF11D677021E028
:100D400030E001C0220F6A95EAF78281822B82830C
:100D50000895FC0132962FEF30E04191641751F075
:100D60002F3F19F4411101C0232F3F5F3630A9F7FF
:100D70002F3F09F40895820F911D27FD9A95FC01DC
:100D800062830895CF92DF92EF92FF926C01EE247E
:100D9000FF2420E0C114D104E104F10419F0C701DB
:100DA000B60120E1C72ED82EE92EFF24C114D104AC
:100DB000E104F10419F0285FC701B6016B017C0161
:100DC00054E0F694E794D794C7945A95D1F7C11498
:100DD000D104E104F10419F02C5FC701B6016B01E5
:100DE0007C0142E0F694E794D794C7944A95D1F7F2
:100DF000C114D104E104F10419F02E5FC701B6015A
:100E00009695879577956795672B682B692B09F0E1
:100E10002F5F822FFF90EF90DF90CF900895809109
:100E2000C60281111092C60208958091C502909168
:100E3000C402892B9091C302892B809396019091D3
:100E4000C6029923A1F0892B8093960180912701F6
:100E5000882341F18091DF0287FF24C08EE1E8E919
:100E6000F1E090E0815000F591110E940F07E091B0
:100E7000E202F091E3023097E1F0809127018823AC
:100E800059F08091DF0287FF07C08091960180931F
:100E9000970185E0809396010280F381E02D86E939
:100EA00091E0099486E0DBCF21912223D9F29F5F64
:100EB000D9CF0895E92FEE0FE90FEE0F8E0F982F7F
:100EC000977086958695869525E0829FF00111247E
:100ED000E557FD4F50E040E080E0219130E0092EE1
:100EE00002C0369527950A94E2F721703327042E25
:100EF00001C0220F0A94EAF7822B4F5F5F4F453003
:100F0000510559F70895E92FEE0FE90FEE0F8E0FF7
:100F1000982F977041E001C0440F9A95EAF78695A3
:100F20008695869595E0899FF0011124E557FD4F40
:100F300030E020E070E05191DF011197CB01022EEB
:100F400002C0969587950A94E2F78170819585276E
:100F5000842385278C932F5F3F4F2530310559F728
:100F6000089520918A029091590256E0291302C0F7
:100F700080E0089530E0529FF001539FF00D11245E
:100F8000E65AFD4F7181761306C07081781303C055
:100F90007281741304C02F5F3F4F2770E7CF81E049
:100FA000089580918A0290915902981301C0089582
:100FB0008F5F8770FACF882341F080959091C502AA
:100FC00089238093C5020C9415070895882339F06E
:100FD0009091C502982B9093C5020C941507089523
:100FE00020914C0230914D022817390771F09093EF
:100FF0004D0280934C02E091E202F091E3023097BF
:1010000021F00084F185E02D0994089520914A0291
:1010100030914B022817390771F090934B0280935F
:101020004A02E091E202F091E302309721F006805B
:10103000F781E02D099408951092C4021092C30222
:101040000E94150790E080E00E94060890E080E092
:101050000C94F0076093C7027093C8028093C90292
:101060009093CA020C941C08882379F19CEF980F86
:10107000913A38F4682F86E991E00E9463060C9457
:10108000150790E2980F983088F4877021E030E0DF
:10109000A90102C0440F551F8A95E2F7CA01809545
:1010A0009091C50289238093C502E9CF9BE5980FF3
:1010B000933020F490E080E00C940608885A873141
:1010C00020F490E080E00C94F0070895CF93C82FAF
:1010D000882309F467C08CEF8C0F813AC0F58091AA
:1010E0002701882311F18091DF0287FF1EC0EC2FBA
:1010F000E695E695E695F0E0EA56FE4F828190E0AF
:101100004C2F477021E030E002C0220F331F4A9578
:10111000E2F782239323892B91F06C2F86E991E0EB
:101120000E9463060E9415070AC0E8E9F1E08EE913
:1011300091E02191C21789F38E179F07D1F76C2F89
:1011400086E991E00E948D06CF910C94150780E20C
:101150008C0F883068F4C77021E030E001C0220FA6
:10116000CA95EAF78091C502822B8093C502ECCF25
:10117000EBE5EC0FE33040F4F0E0EC59FE4F8081FA
:1011800090E0CF910C940608C85AC73158F4EC2F60
:10119000F0E0EE0FFF1FE959FE4F80819181CF9162
:1011A0000C94F007CF910895E091E202F091E302F0
:1011B000309721F00190F081E02D099480E00895AE
:1011C0000F931F93CF93DF938C01EB0180911A0152
:1011D00082FF2FC08B7F80931A0180915002209153
:1011E0004E0230914F02AB01421B530B209118016C
:1011F000309119014217530788F40E9466088091C4
:101200001A018D7F80931A01809150020E94340848
:101210008091C4028D7F8093C40215C09091C40256
:1012200092609093C4020E94660880911A018260C5
:10123000E9CF802F0E943408809150029091510292
:101240000817190729F30E941507D0934F02C0937E
:101250004E02DF91CF911F910F910895FA018111F4
:1012600001C0FB0109948091FB02982F9E7F29F415
:10127000817082608093FB0208958635E8F3817067
:101280008465F8CFAF92BF92DF92EF92FF920F93F7
:101290001F93CF93DF93082F162FE901E42FF0E07F
:1012A000E455FF4F611111C0E4915E2F4E2F498329
:1012B000E8835A831B82DF91CF911F910F91FF909A
:1012C000EF90DF90BF90AF900895E62EF12C4491FF
:1012D000D42EE42FF0E026E0829FC00111242FEFEE
:1012E00030E0B9010E94BF28802F90E0880F991F3D
:1012F00055E5569FD001579FB00D11248A1B9B0BBB
:10130000982F990F890F5901AE18BF08AE9ED001D2
:10131000AF9EB00DBE9EB00D11245B2F189F8001B3
:101320001124012F11275901A01AB10AAE9E800184
:10133000AF9E100DBE9E100D11245901A81AB108C0
:10134000AE9CC001AF9C900DBE9C900D1124892FC6
:101350009927281B390B2E9FC0012F9F900D3E9F70
:10136000900D1124E92F62307105A1F050F4611540
:10137000710509F49CCF6130710581F0EB2F512F7D
:1013800096CF6430710569F080F06630710509F41C
:101390008ECFF4CFE42F4B2F592F89CFE42F412F3D
:1013A00086CFEB2F542F492F82CF4B2F5D2DE12F6E
:1013B0007ECF9091DF0292FF06C0282F287128303F
:1013C000F9F4877F846093FF06C0282F28712831A5
:1013D000F1F4877E84612091E00220FF06C0382F5F
:1013E00038713830D9F4877F816021FF06C0282FFB
:1013F00028712831D1F4877E816194FD877E08951C
:10140000282F24712430F9F68B7F8860DCCF282FB9
:101410002471243101F78B7E8861DDCF382F317143
:10142000313019F78E7F8860E0CF282F217121316C
:1014300021F78E7E8861E1CFCF93DF93972F70E005
:1014400026E0929F600D711D1124FB0134E5839FFE
:10145000E00DF11D1124EE0FFF1FEF5AFC4FC59157
:10146000D491CE01C238D105B9F1E8F5C133D10527
:1014700009F499C050F5C932D10509F48DC0CA32BA
:10148000D10509F497C0C11542E5D40708F0B6C0EC
:10149000C11521E5D20708F024C1C83ED10508F0E6
:1014A0009DC0C03ED10568F5C83AD10508F089C095
:1014B000C53AD10508F0EDC0C130D10511F1209732
:1014C00009F443C02497E8F440C0C533D10509F4BA
:1014D0005CC0C933D105B9F62091DF02237089F0D1
:1014E00080EE90E00EC0C33ED10591F168F4C03E9D
:1014F000D105F9F0C23ED10531F62091DF0222FD7F
:1015000020C0DF91CF910895C63ED10561F1C73E5D
:10151000D10581F1C43ED10509F0B5CF2091E0029B
:1015200021FFEFCF8091DF0284FD0FC087EE90E0B6
:10153000E8CF2091DF0220FD01C13091E00230FFB1
:10154000E0CF83EE90E024FFDCCF90E080E0D9CFC5
:101550002091DF0222FDF5C03091E00230FDC0CFC6
:1015600024FFCFCFF2CF2091DF0223FFCACF24FD8B
:10157000ECCFDCCF2091DF0223FDE6C03091E0020A
:1015800031FFEECF84EE90E0BCCF2091DF0225FF4B
:10159000B8CF89E290E0B5CF2091DF0225FFB1CF2F
:1015A00085E390E0AECF2091DF0226FFAACF8AE24A
:1015B00090E0A7CF2091DF0226FFA3CF81E390E048
:1015C000A0CFCF3BD10508F6C85AD0E0CC0FDD1F25
:1015D000C959DE4F88819981946493CFC11530E554
:1015E000D30708F062C0C11540E4D40708F059C021
:1015F000DA95C115DF4108F484CFA7CFC11536E5D0
:10160000D30718F5C11545E5D40708F080C0C1150A
:1016100084E5D80708F076C09C2F96959695AE0184
:1016200043705527C115D34508F460C021E030E070
:1016300002C0220F331F4A95E2F740E2949FC00197
:101640001124822B932B9A685CCFC1153AE5D307FE
:1016500078F4C11549E5D40708F063C0C11588E5E1
:10166000D80708F472CF9C2F8827806F906A49CFE3
:10167000CE0190568115904208F067CF8D2F8F7163
:101680000E94D90990E0982F882788279F718C2B7A
:1016900046C0C55AD0E0CC59DE4F888190E09064B6
:1016A00030CFCE019F70906A2CCF9E01E4E036953A
:1016B0002795EA95E1F723708C2F869586958370A0
:1016C00030E2839FC0011124922BC37021E030E0EF
:1016D00002C0220F331FCA95E2F7822B932B9C681E
:1016E00010CF9C2F8827816F906A0BCF21E030E0CC
:1016F00002C0220F331F4A95E2F740E2949FC001D7
:101700001124EBCF9C2F8827846F906AFACE8C2F00
:101710000E94D90990E0982F882788279F719062AE
:10172000F0CE8C2F8F700E94D90934E0D695C795E2
:101730003A95E1F7CF709C2F9069E3CE89E390E072
:10174000E0CE82EE90E0DDCE86EE90E0DACEBF9283
:10175000CF92DF92EF92FF920F931F93CF93DF937D
:101760008C01C0901203D0901303E0901403F0900A
:1017700015038091C7029091C802A091C902B0914F
:10178000CA02C82AD92AEA2AFB2ACFE1D0E0BC2E15
:10179000D701C6010C2E04C0B695A79597958795DD
:1017A0000A94D2F780FD0EC0219788F7B12C8B2DBB
:1017B000DF91CF911F910F91FF90EF90DF90CF902D
:1017C000BF900895B8018C2F0E941C0A019761F305
:1017D000EECFCF93DF93EC010E94A70BBE01DF9108
:1017E000CF910C941C0A0E94E90B292F2F7092951F
:1017F0009F7092509E3078F4E92FF0E0ED5EF14D4D
:101800000C94E728803F19F020F4883E20F481E012
:101810000895843FE1F380E00895883EC0F3813F5E
:10182000D1F7F5CF822F86958695869508952798CE
:101830002F98089526982E98089525982D98089504
:1018400056985E980895279A2F9A0895269A2E9A68
:101850000895259A2D9A0895CF92DF92EF92FF92E4
:10186000CF936B017C010E94C206C82F0E94200CFE
:101870000E941D0C0E941A0C0E94170CC150C73008
:1018800040F4EC2FF0E0EF5DF14D0C94E7280E945E
:10189000290CC701B601CF91FF90EF90DF90CF9058
:1018A00008950E94290C0E94260CF3CF0E94290C57
:1018B0000E94230CEECF0E94290C0E94260CF8CF28
:1018C000CF92DF92EF92FF92CF93DF9300D000D0C0
:1018D000CDB7DEB70E942C0C6B017C018091160302
:1018E000882321F080911703811115C0C092120343
:1018F000D0921303E0921403F09215030E941C0887
:101900000F900F900F900F90DF91CF91FF90EF907D
:10191000DF90CF900895198282E08A83C701B601D3
:101920000E94C2068B838EEF8C8364E0CE01019609
:101930000E944B06DBCF0F931F9341E050E060E025
:1019400070E004C0440F551F661F771F8A95D2F7B9
:10195000CB01BA0160957095809590950091120326
:101960001091130320911403309115036023712308
:10197000822393231F910F910C94600C9091C202CB
:10198000809589238093C202282F277071F4282F15
:10199000082E000C330B9217130639F085958595A8
:1019A00085950E949B0C1092C20208950F931F937D
:1019B00041E050E060E070E004C0440F551F661F36
:1019C000771F8A95D2F78091120390911303A0910B
:1019D0001403B09115038A019B01082B192B2A2BA4
:1019E0003B2BC901B8011F910F910C94600C2098FA
:1019F00028982198299822982A9823982B985298C9
:101A00005A9853985B983E98469808958098889A7B
:101A10008198899A84988C9A85988D9A86988E9ABE
:101A200087988F9A0895CF93DF9300D00F92CDB708
:101A3000DEB790913E03943019F589837B836A83E6
:101A400082E08093E9008FEF9091E800815095FD4E
:101A500006C095ED9A95F1F700008111F5CF8091C0
:101A6000E80085FF0DC050E040E063E070E0CE018B
:101A700001960E94AB048091E8008E778093E80085
:101A80000F900F900F90DF91CF910895BC0184E0EB
:101A90000C94130DBC0183E00C94130DCF93DF93D2
:101AA000EC01809127018823B1F18091DF0287FF4B
:101AB00032C060E282E08093E9008FEF9091E8000D
:101AC000815095FD06C095ED9A95F1F700008111C2
:101AD000F5CF8091E80085FF1BC08091270170E061
:101AE00050E040E0811104C050E040E068E070E068
:101AF000CE010E94AB048091E8008E778093E800CD
:101B000080E2FE01ACE1B3E001900D928A95E1F72D
:101B1000DF91CF91089568E081E0CDCFCF93C82FBA
:101B20000E946608C93349F42FEF87EE93E02150F5
:101B300080409040E1F700C000008C2FCF910C94C2
:101B40003408EF92FF920F931F93CF93DF930E947D
:101B5000200C0E941D0C0E941A0C0E94170C88E891
:101B6000E82EF12C8FEF90E0F701918380830AE853
:101B700010E0F80191838083CCE8D0E099838883DA
:101B80000E94290CFFEF20E782E0F15020408040C6
:101B9000E1F700C000000E94260C9FEFE0E7F2E0B2
:101BA0009150E040F040E1F700C000000E94230C9B
:101BB0002FEF80E792E0215080409040E1F700C095
:101BC00000000E941D0CEFEFF0E722E0E150F04032
:101BD0002040E1F700C000000E941A0C8FEF90E750
:101BE000E2E081509040E040E1F700C000000E9438
:101BF000170C8091CD028770FFEF8F9FC0011124D9
:101C000095958795959587959927F7019183808379
:101C1000F80191838083998388830E94200C0E941D
:101C20001D0C0E941A0CDF91CF911F910F91FF9014
:101C3000EF900C94170CCF9384E090E00E94662DF7
:101C4000C82F81E290E00E94662D982F8C2FCF91B3
:101C50000895CF92DF92EF92FF926B017C010E9478
:101C60003309B701A60188E090E0FF90EF90DF9084
:101C7000CF900C948C2D8091FF02882319F0815015
:101C80008093FF026091FB027091FC028091FD0243
:101C90009091FE020C94290E8091FF02833018F47B
:101CA0008F5F8093FF026091FB027091FC02809134
:101CB000FD029091FE020C94290EEBEFF2E083E01E
:101CC000808311828FEF828383831482608171818C
:101CD000828193810C94290E6FEE7EEF90E080E07C
:101CE0000E94982D60E082E090E00E947A2D60E0F2
:101CF00083E090E00E947A2D1092C7021092C802F1
:101D00001092C9021092CA0260E084E090E00E9442
:101D10007A2D60E081E290E00E947A2D60E085E01B
:101D200090E00E947A2D60E086E090E00E947A2D9B
:101D30006FEF87E090E00E947A2D40E050E0BA011A
:101D400088E090E00E948C2D60E08DE090E00E94A1
:101D50007A2D40E050E0BA0188E190E00E948C2D9D
:101D600060E087E190E00E947A2D40E050E0BA0107
:101D70008CE190E00E948C2D60E080E290E00E9477
:101D80007A2D40E050E0BA0188E190E00E948C2D6D
:101D90001092CD021092CE021092CF021092D00279
:101DA00084E080618093CD024091CD025091CE02BB
:101DB0006091CF027091D0028FE090E00E948C2D54
:101DC00040E050E0BA0183E190E00C948C2D109239
:101DD000C50280912701E8E9F1E0882359F080915C
:101DE000DF0287FF07C08EE1DF011D928A95E9F7C8
:101DF0000C941C0886E0F8CF1F93CF93DF93CDB7E8
:101E0000DEB7AA970FB6F894DEBF0FBECDBF80E451
:101E100093E02091F100FC012193CF01F3E088349D
:101E20009F07B9F780914103893009F444C018F540
:101E3000823009F4B7C0833009F46CC0813031F5C9
:101E400080914003813A11F58091E800877F80936B
:101E5000E8008091440390914503892B41F560E2AD
:101E60008CE193E070E00E94E8058091E8008B77B8
:101E70008093E8000BC08B3009F469C008F481C07E
:101E8000823409F4A0C0853409F4BAC08091E80016
:101E900083FF4BC280914003909141039A3008F038
:101EA00044C2E92FF0E0E85DF14D0C94E72860E0D2
:101EB00090E080E0D7CF80914003813239F7809164
:101EC000440390914503029708F78091E800877FCB
:101ED0008093E8008091E80082FF17C09091F300A2
:101EE0008091F200029729F48091F1008B7F81307C
:101EF00021F48091F10080931B038091E8008B779F
:101F00008093E8000E94D704C1CF80913E038111E5
:101F1000E1CFBCCF80914003813A09F0B7CF8091E7
:101F2000440390914503892B09F0B0CF8091E800DC
:101F3000877F8093E8008091E80080FFFCCF80914C
:101F400027018093F1008091E8008E77D9CF8091AE
:101F50004003813209F09ACF809144039091450368
:101F6000892B09F093CF8091E800877F8093E80068
:101F70000E94D70480914203809327010E94E70EBC
:101F800085CF80914003813209F080CF8091E800B5
:101F9000877F8093E8000E94D70480914303809359
:101FA0001A0374CF80914003813A09F06FCF80917A
:101FB000E800877F8093E8008091E80080FFFCCFF5
:101FC00080911A03BECF80914003803C09F05ECF20
:101FD0008091440390914503029739F58091420323
:101FE00090914303892B09F58091E800877F8093C6
:101FF000E8006BE170E088EB96E00E94890582CFF3
:1020000080914003803C09F041CF8091440390913E
:102010004503079751F48091E800877F8093E8009B
:1020200062EB70E086E096E0E8CF8091EB008062A2
:102030008093EB002BCF803899F0823809F075C17E
:10204000809144038F70873008F06FC18093E9005E
:102050008091EB0085FB882780F91092E90006C08B
:1020600080913C0390913D03911182609091E80032
:10207000977F9093E8008093F1001092F100809197
:10208000E8008E774EC1882309F43CC1823009F004
:102090004CC18091420381113FC1809144038F70F4
:1020A0002FEF280F263008F040C18093E9002091DF
:1020B000EB0020FF31C1933031F48091EB0080625E
:1020C0008093EB0029C19091EB0090619093EB001D
:1020D00021E030E001C0220F8A95EAF72093EA0060
:1020E0001092EA008091EB008860EACF81111DC157
:1020F000109142031F778091E3008078812B8093B9
:10210000E3008091E800877F8093E8000E94D70475
:102110008091E80080FFFCCF8091E300806880938D
:10212000E30082E0111183E080933E03FEC08058FB
:10213000823008F0FAC080914203909143038C3DB5
:1021400023E09207A1F583E08A838AE289834FB76F
:10215000F894DE01139620E03EE051E2E32FF0E038
:1021600050935700E49120FF03C0E295EF703F5F6A
:10217000EF708E2F90E0EA30C0F0C7968D939D935C
:102180002F5F243159F74FBF8091E800877F8093FC
:10219000E8006AE270E0CE0101960E94E8058091B5
:1021A000E8008B778093E800C0C0C096E7CF4091ED
:1021B000440350914503292F33272330310551F132
:1021C000A0F42130310509F452C062E570E081E8E5
:1021D00097E02230310509F0A8C02091E800277F60
:1021E0002093E8000E948905DACF2132310539F1C8
:1021F0002232310581F12F30310509F096C0E1E43A
:10220000F8E0649170E08FE398E06115710509F4DE
:102210008CC0E3CF99278130910571F0009731F0A0
:10222000029709F082C0E5EEF7E002C0EBE3F8E0C8
:10223000649170E0CF01E9CFE9E0F8E0F9CF411512
:102240005105D1F04130510509F06FC069E070E0EF
:102250008CEA97E0C2CF4115510599F04130510504
:1022600009F063C06DE670E084ED96E0B6CF62E100
:1022700070E083ED97E0B1CF69E070E083E997E02B
:10228000ACCF60E470E081E497E0A7CF803809F03C
:102290004CC08091E800877F8093E80080913F03E5
:1022A0008093F100ECCE811140C0109142031230B6
:1022B000E0F58091E800877F8093E80010933F036A
:1022C0000E94D704112311F084E005C08091E3003F
:1022D00087FDFACF81E080933E0342E061EC81E02C
:1022E0000E94F60442E261EC82E00E94F60442E3BE
:1022F00061EC83E00E94F60442E360EC84E00E941B
:10230000F60413C080914203813079F481E0933068
:1023100009F080E080933D031092E9008091E8008D
:10232000877F8093E8000E94D7048091E80083FFB4
:102330000AC08091E800877F8093E8008091EB00DD
:1023400080628093EB00AA960FB6F894DEBF0FBEB2
:10235000CDBFDF91CF911F910895CF93C82F8730C4
:1023600070F580911B0190911C01892B89F564E621
:1023700070E080E40E94F22790931C0180931B017F
:10238000892BD1F464E670E082E10E944E2890939C
:102390001C0180931B01892B79F481E090E001C03E
:1023A000880FCA95EAF764E670E080950E944E288F
:1023B00090931C0180931B01CF910C94A1288A302B
:1023C000B9F040F4883071F0893079F0209A28987B
:1023D000CF9108958C3091F070F08D30B9F73E9A1E
:1023E0004698F6CF219A2998F3CF229A2A98F0CFCF
:1023F000239A2B98EDCF529A5A98EACF539A5B982A
:10240000E7CFCF93DF938091FB0280FD0BC0E3EC1D
:10241000F1E01182108212821382349651E0EF3F74
:10242000F507B9F7C3ECD1E0FE019281208131813B
:10243000892F291708F4822F381708F4832F8383F4
:10244000381B3183281B2083981B9283349681E0AC
:10245000EF3FF80751F70E94EC2764E670E084E84C
:102460000E94F22764E670E088810E944E2864E6AC
:1024700070E089810E944E2864E670E08A810E94A3
:102480004E2864E670E08B810E944E28249691E0ED
:10249000CF3FD90739F70E94A128579A3BB13F7720
:1024A0002BB120684FB7F89483EC91E0FC01519177
:1024B000CF0168E02BB9000000C057FF3BB9550FB2
:1024C000000000C000C000C03BB900C06A9591F791
:1024D000F1E08F3F9F0751F74FBF8FE594E00197E1
:1024E000F1F700C00000DF91CF9108958F929F9285
:1024F000AF92BF92CF92DF92EF92FF920F931F9312
:10250000CF93DF93FC01B280948081E08483CFEF8E
:10251000D1E003EC11E08BE4A82E88248394EE2410
:10252000EA94F12C2BE4C22ED12C91101DC01B82F9
:102530001A8298014A81698188810E944209259600
:102540000C5F1F4F82E0CA34D80779F7DF91CF9133
:102550001F910F91FF90EF90DF90CF90BF90AF90C1
:102560009F908F900C9401122B81222309F121500E
:102570002B833C818A2D821B311101C0822F9091C7
:10258000FE02899FC0011124B6010E94BF286A8300
:10259000211104C0332311F01C82AB8222E02B15E1
:1025A00040F28091FC0288838091FD028983C1CF33
:1025B0000E947F29823091400CF0BBCF82E08B15C6
:1025C000C0F40E947F29B7010E94D328888322E0AB
:1025D0002B1590F40E947F292091FD022695622FF1
:1025E00070E00E94D328280F29831A82AB828C8244
:1025F000A0CF8091FC02EACF2091FD02F5CFEF92AF
:10260000FF921F93CF93DF93EC0183ECE82E81E0E0
:10261000F82E10E08C8197014091FE026091FD023E
:10262000810F0E9442091F5E84E0E80EF11C1F3FEB
:1026300089F70E9401129A818C8190FF08C08F5FF8
:102640008C83DF91CF911F91FF90EF90089581507F
:10265000F7CFBF92CF92DF92EF92FF920F931F932B
:10266000CF93DF93FC018281DD24DA9480FD02C0E8
:10267000DD24D39403EC11E0D0E0C0E02FE0B22ED3
:10268000F801118210821282138294E0E92EF12C5B
:10269000C12C8091C0018C0D80310CF43DC06B2D9C
:1026A0000E94B128892F082E000C990B8C179D07CA
:1026B00091F48091FE028E9DA0018F9D500D1124FA
:1026C000559547955595479598016091FD028091E4
:1026D000FC020E944209CD0CF1E0EF1AF108C9F6A4
:1026E00021960C5F1F4FCF30D10551F60E94011289
:1026F0008091C00191E0D91215C0811111C08EE006
:102700008093C001DF91CF911F910F91FF90EF90C7
:10271000DF90CF90BF90089587FFC5CF815FC3CF73
:102720008150EECF90E00196BE010E94D328E8CF01
:102730000F931F93CF93DF93C3ECD1E0FE0111827F
:10274000108212821382349681E0EF3FF807B9F7C6
:1027500010E000E08091C101082E000C990B0817D1
:1027600019078CF180911601082E000C990B801727
:1027700091074CF19E014091FE026091FD02809113
:10278000FC020E9442090F5F1F4F24960F30110573
:1027900009F70E940112809115019091C101980FD3
:1027A0009093C10120911601280F20931601121653
:1027B00014F49E301CF0819580931501DF91CF9128
:1027C0001F910F910895198218821A821B82DBCF04
:1027D0008F929F92AF92BF92CF92DF92EF92FF9231
:1027E0000F931F93CF93DF93EC014C81042F10E0E4
:1027F0009801D8010E94022E9B01AC010E94CD2DB0
:102800004B015C01E0E2F0E0E01BF10BA5E5B0E07C
:10281000AC019B010E94CD2D6B017C019F01DF016A
:102820000E94ED289B01AC010E94D82D9B01AC01B8
:10283000280D391D4A1D5B1DC701B6010E94E02D00
:10284000F22E822F90E039E23F15D8F143E0249F29
:102850009001112435952795122F109593ECC92ED0
:1028600091E0D92E00E085E5E82EEF188E2D01FDD0
:102870008F2D9601412F6091FD020E9442090F5F4A
:1028800054E0C50ED11C0F3089F70E9401129C81C3
:1028900081E0992319F0903219F48FEF809317019A
:1028A00080911701890F8C83DF91CF911F910F9138
:1028B000FF90EF90DF90CF90BF90AF909F908F9060
:1028C000089525E530E0A901481B590BCA019A017A
:1028D000220F331F280F391F37FFBCCF2F5F3F4F09
:1028E000B9CFEF92FF920F931F93CF93DF938C0199
:1028F000C3ECD1E0F12CE12CF80194816091FD0250
:102900008091FC02F7E0EF16F104FCF49923F9F052
:102910009E014091FE020E9442092FEFE21AF20A44
:1029200024968FE0E816F10439F70E940112F801AD
:10293000848190E00196817099278483DF91CF9103
:102940001F910F91FF90EF900895992309F39E0135
:1029500040E0E1CF9091FB0290FF0DC0E3ECF1E08D
:102960008183608342831382349691E0EF3FF907BD
:10297000B9F70C94011208950F931F93CF93DF932F
:1029800000D000D0CDB7DEB78C018091C20181119B
:102990000AC09E012F5F3F4F4FEF6FEF0E94420929
:1029A0008A818093C201F8016481613069F080916D
:1029B000C20140E0662361F040E0623011F44091D2
:1029C000C20180E060E004C06091C20140E080E0AC
:1029D0000E94AA14F801848190E0019663E070E0FF
:1029E0000E94D32884830F900F900F900F90DF9157
:1029F000CF911F910F910895CF93DF9300D000D016
:102A0000CDB7DEB79091FB0290FF0AC09E012F5F09
:102A10003F4F0E9442094B8169818A810E94AA141A
:102A20000F900F900F900F90DF91CF910895CF935B
:102A3000DF93EC01EC81F0E0EF54FE4F4491EBEFBB
:102A4000F2E0628181810E94FC148C818F5F8C8313
:102A5000DF91CF910895CF93DF93EC01EBEFF2E09C
:102A6000438162818C810E94FC148C818F5F8C83F6
:102A7000DF91CF9108955F926F927F928F929F9294
:102A8000AF92BF92CF92DF92EF92FF920F931F937C
:102A9000CF93DF9300D000D0CDB7DEB7182F762EBE
:102AA000042F622E9091FB0290FF29C0E92FE6953A
:102AB000AE2FB0E0A75CBE4F8C91809300039E7F49
:102AC000923089F59E012F5F3F4F812F0E9442096E
:102AD0004B8169818A810E94AA141093FC02709232
:102AE000FD020093FE02662051F06091FB0270919E
:102AF000FC028091FD029091FE020E94290E0F902F
:102B00000F900F900F90DF91CF911F910F91FF9039
:102B1000EF90DF90CF90BF90AF909F908F907F907D
:102B20006F905F900895823019F40091FE02D5CF26
:102B3000863019F41091FC02D0CF8930D9F3893155
:102B400061F6E9518E2F8170582EE695F0E0E4553C
:102B5000FE4FA590B490BB2483ECE82E81E0F82EC4
:102B6000D12CC12C9FE0892E912CC601B4010E946A
:102B7000BF28812F511013C0860F9701402F672D5A
:102B80000E944209CA0CDB1C84E0E80EF11C8FEFA6
:102B9000E81681E0F80649F70E9401129ECF861BD5
:102BA000ECCFEBEFF2E043812CE0421B08F440E075
:102BB00021E0628181810C943B15EBEFF2E04381CF
:102BC0002CE0420F08F44FEF21E0628181810C94E8
:102BD0003B15EBEFF2E062812FEF621B08F460E03F
:102BE00021E0438181810C943B15EBEFF2E062819F
:102BF0002FEF620F08F46FEF21E0438181810C9485
:102C00003B15EBEFF2E0818121E0438162818C5042
:102C10000C943B15EBEFF2E0818121E0438162816E
:102C2000845F0C943B1580E290E090931C018093AC
:102C30001B018091B60181110EC00E94EC2781E03A
:102C40008093B6012FEF83ED90E3215080409040B8
:102C5000E1F700C0000064E670E080E40E94F22723
:102C600090931C0180931B01892B09F04EC064E6F0
:102C700070E080E00E944E2890931C0180931B011D
:102C8000892B09F042C064E670E080E00E944E2883
:102C900090931C0180931B01892BB9F564E670E0C9
:102CA0008FE30E944E2890931C0180931B01892B77
:102CB00061F50E94A12864E670E080E40E94F2279A
:102CC00090931C0180931B01892BF9F464E670E05A
:102CD0008CE00E944E2890931C0180931B01892B4D
:102CE000A1F464E670E080E00E944E2890931C01FD
:102CF00080931B01892B49F464E670E08FE30E9406
:102D00004E2890931C0180931B010E94A128809162
:102D10001B010895CF93873050F580911B0190914E
:102D20001C01C0E0892B71F464E670E081E40E942C
:102D3000F22790931C0180931B01892B31F0C0E096
:102D40000E94A1288C2FCF91089584E690E00E94E4
:102D50007D2897FF05C090931C0180931B01EFCF46
:102D6000C82FC09510921C0110921B01E9CFCFB162
:102D70008FB1869586958C73C3708C2BC82FC095A8
:102D8000E1CF1F920F920FB60F9211242F933F9312
:102D90004F935F936F937F938F939F93AF93BF9363
:102DA000CF93DF93EF93FF93D091E900DF70809191
:102DB000EC00C82FC17080FDC0E81092E90080913E
:102DC000F000877F8093F00078940E94FC0E1092B0
:102DD000E9008091F00088608093F000CD2BCF70E7
:102DE000C093E900FF91EF91DF91CF91BF91AF9137
:102DF0009F918F917F916F915F914F913F912F9113
:102E00000F900FBE0F901F9018951F920F920FB644
:102E10000F9211242F933F934F935F936F937F9360
:102E20008F939F93AF93BF93EF93FF938091E100B4
:102E300082FF09C08091E20082FF05C08091E1001D
:102E40008B7F8093E1008091DA0080FF24C0809125
:102E5000D80080FF20C08091DA008E7F8093DA0056
:102E60008091D90080FF9BC080E189BD82E189BD4E
:102E700009B400FEFDCF81E080933E0380911903E9
:102E8000811109C00E945B040E9428058091E20024
:102E900084608093E2008091E10080FF17C0809100
:102EA000E20080FF13C08091E2008E7F8093E200F9
:102EB0008091E20080618093E2008091D80080627E
:102EC0008093D80019BC85E080933E038091E10097
:102ED00084FF29C08091E20084FF25C080E189BD84
:102EE00082E189BD89B5982F917080FFFBCF8091D9
:102EF000D8008F7D8093D8008091E1008F7E8093F1
:102F0000E1008091E2008F7E8093E2008091E200F8
:102F100081608093E20080913F03882309F445C0DB
:102F200084E080933E038091E10083FF27C080917D
:102F3000E20083FF23C08091E100877F8093E1005E
:102F400082E080933E0310923F038091E1008E7FE8
:102F50008093E1008091E2008E7F8093E200809177
:102F6000E20080618093E20042E060E080E00E9445
:102F7000F6048091F00088608093F000FF91EF915B
:102F8000BF91AF919F918F917F916F915F914F9181
:102F90003F912F910F900FBE0F901F90189519BC65
:102FA00010923E031092190376CF8091E30087FDC3
:102FB00093E090933E03B7CF78941F921FB61F9271
:102FC00011248F939F93AF93BF9380914803909167
:102FD0004903A0914A03B0914B030196A11DB11D75
:102FE0008093480390934903A0934A03B0934B0303
:102FF000BF91AF919F918F911F901FBE1F90189509
:103000002FB7F8948091480390914903A0914A0307
:10301000B0914B032FBF08950F931F93CF93DF936E
:10302000C62FD42F022FFC0182818823A1F0609348
:103030004E030E94001890934D0380934C03C77079
:1030400081E001C0880FCA95EAF7DF91CF911F9107
:103050000F910C94E60780914E03681340C02091B5
:103060004C0330914D034FB7F894809148039091F1
:103070004903A0914A03B0914B034FBF821B930BAE
:103080008C37910560F510E21D0F6D17B9F080E2E5
:10309000860F883040F4C77081E001C0880FCA9560
:1030A000EAF70E94DB07183048F481E09D2F977003
:1030B00001C0880F9A95EAF70E94E607802F0E94C8
:1030C0008E0D183098F4D77081E001C0880FDA9522
:1030D000EAF7DF91CF911F910F910C94DB07C77036
:1030E00081E001C0880FCA95EAF7F3CFDF91CF9155
:1030F0001F910F9108956091FB02669570E04BE07F
:1031000050E08AE091E00E94BA2A892B19F481E00C
:10311000809301030E9400189093F6028093F502B9
:1031200008959091FB0290FF36C09170811129C0E3
:1031300092609093FB02662351F06091FB027091C4
:10314000FC028091FD029091FE020E94290E609186
:10315000FB02669570E04BE050E08AE091E00E944F
:10316000BA2A892BA9F01092010381E08093F8021A
:1031700020E04091FE026091FD028091FC020C94DF
:103180003B158B3210F09465D4CF880F982BD1CF9C
:103190000E947B18EACF089561E00C949118EBEF40
:1031A000F2E080818160808386950C94CC188091B8
:1031B000FB028695815009F48AE261E00C94911833
:1031C0008091FB0286958F5F8B3208F081E061E091
:1031D0000C9491189091FB0290FF07C09695981758
:1031E00020F0961710F40C94E0180C94CC184F9221
:1031F0005F926F927F928F929F92AF92BF92CF9287
:10320000DF92EF92FF920F931F93CF93DF93CDB78F
:10321000DEB728970FB6F894DEBF0FBECDBF7C0196
:10322000FC0183819481892B39F01081D180812F19
:103230008D218F3F09F0D9C628960FB6F894DEBFCE
:103240000FBECDBFDF91CF911F910F91FF90EF90F7
:10325000DF90CF90BF90AF909F908F907F906F90B6
:103260005F904F9008950E94A70B082F682F8981C7
:103270009A810E948307E12FF0E026E0D29EE00DC4
:10328000F11D112434E5039FE00DF11D1124EE0F13
:10329000FF1FEF5AFC4F059114918091160388236C
:1032A00021F08091170381118DC60A32FDE51F07B9
:1032B00009F06CC0F70182818823C9F18091CD02A9
:1032C00091E0980F9770887F953008F4892B809350
:1032D000CD028091CD028770FFEF8F9FC001112436
:1032E00095958795959587959927909389008093D3
:1032F000880090938B0080938A0090938D00809338
:103300008C004091CD025091CE026091CF0270911D
:10331000D0028FE090E00E948C2D6091120370919A
:10332000130380911403909115030E942C0C0E94AA
:1033300000186C01F701828181117BC00B321105ED
:1033400039F008F0B1C1C8010497849708F0B7C1FB
:10335000F7018281882309F4CBC180911A0180FF93
:103360009DC09091C502911199C010935102009394
:103370005002D0924F02C0924E02846080931A0194
:1033800082E00E94BE0C39C081E122C60D322DE5DB
:10339000120721F160F40C328DE5180741F6F701B0
:1033A0008281882351F181E00E94CC1826C00E3220
:1033B0009DE5190781F10F32EDE51E0709F0B7CF42
:1033C000F70182818823C9F00E94CF1881E00E9412
:1033D000CC1821E04FEF6FEF8BE10DC0F701828138
:1033E000882359F00E94CF1881E00E94CC1821E078
:1033F0004FEF6FEF8CEA0E943B158091C2028770FD
:1034000009F41ACFF7018281882309F415CF82E0ED
:103410000E94BE0C11CFF7018281882371F30E94B4
:10342000CF1881E00E94CC1821E040E86FEF86E5DC
:10343000E2CF80911A0182FF05C0B60190E080E0E2
:103440000E94E0088091C4028D7F8093C4020931FC
:10345000FCE51F0709F482C080F407313CE513073F
:1034600009F472C008318CE5180709F067CF809124
:1034700018019091190105976CC00B319CE5190753
:1034800009F45EC008F455C080911A018E7F0C319A
:10349000FCE51F0709F052CF80931A01F7019281D2
:1034A000992309F4B6C510924E030230FCE51F07BC
:1034B00008F41EC206312CE5120738F098012B5F84
:1034C0003C452730310508F013C20E941B0E909333
:1034D000E0028093DF020F303CE5130709F4E9C1F5
:1034E00008F063C108309CE5190709F4CCC108F065
:1034F00038C10430FCE51F0709F4B9C108F01EC14A
:1035000002303CE5130709F4AAC103301C4509F455
:10351000AAC16091DF021091E00284E090E00E9475
:103520007A2D612F81E290E00E947A2D0E94E70EB1
:1035300064CF90911A01892F8E7F90FF8160ACCF6C
:1035400080911A018160A8CF809118019091190192
:1035500005969093190180931801A0CF80911901CD
:103560008F93809118018F9388E291E09F938F93BE
:103570001F9288E08F939F928F920E94C72A0FB666
:10358000F894DEBF0FBECDBF64015AE0452EF601B0
:103590002081222309F482CF213009F046C0918195
:1035A0008281913049F4F2E0CF0ED11C0E948E0D41
:1035B0002FEFC21AD20AEBCF923031F422E0C20EC2
:1035C000D11C0E946608F4CF933031F432E0C30E70
:1035D000D11C0E943408ECCF943021F08FEFC81A30
:1035E000D80AE6CF92E0C90ED11C30E020E0A60157
:1035F0004F5F5F4F8053990B8A30910550F02150F7
:103600003109B0F28FE99FE00197F1F700C00000A7
:10361000F6CF429EB001439E700D11249C01260FEF
:10362000371FF60181816A01E2CFE22FF0E0EF520D
:10363000FD4F5490822F86958695869590E0FC01EB
:10364000EF53FD4F64902770712C022E02C07594C9
:1036500067940A94E2F7E1E06E227724FC01EF54CC
:10366000FD4FA490B12C02C0B594A7942A95E2F71F
:10367000F1E0AF22BB246114710419F081EE0E94C5
:103680006608A114B10419F086EE0E946608852D23
:103690000E948E0DAB2819F086EE0E943408672830
:1036A00009F486CF81EE95CF0D32110540F0093334
:1036B000110508F44DCE0436110509F449CE043F36
:1036C000FCE51F0761F1C8F4093D3CE5130719F15A
:1036D0000A3D8CE5180779F1083D9CE5190709F0CA
:1036E000DDCE26E241EE61EEC7010E940C1885CEC8
:1036F000B601C8010E94E00880CE063FECE51E0737
:10370000B1F088F0073F2CE5120709F0C7CE27E299
:1037100045EE66EEE9CF27E245EE65EEE5CF26E21F
:1037200041EE60EEE1CF27E245EE64EEDDCF26E22A
:1037300041EE62EED9CF28E241E0EFCF8091DF0287
:10374000806106309CE5190709F447C08091DF02CB
:10375000886007301C4508F440C08091DF02806219
:103760003CC00B30FCE51F0709F49BC068F409302E
:103770003CE5130709F48BC00A301C4509F0C9CE9B
:103780008091DF028C6029C08091DF028B7F0D3039
:103790009CE5190711F18091DF028D7F0E301C45E9
:1037A000E0F08091DF02877F18C00B3FFCE51F0728
:1037B00009F461C060F502313CE5130709F481C0EA
:1037C00078F400319CE5190709F477C08091DF0295
:1037D0008F7B01311C4509F09CCE8093DF0299CE8E
:1037E0000431FCE51F0709F47AC008F470C0053104
:1037F0001C4509F08ECE8091DF0282FB992790F95B
:1038000021E0922790FB82F990FB83F9E6CF0E3FEF
:103810008CE5180709F449C070F40C3FECE51E076D
:1038200071F18091E0028E7F0D3F1C4509F071CE51
:103830008093E0026ECE01152DE5120709F44BC00E
:1038400060F101301D4509F064CE8091E002982FAF
:10385000909591708E7F892B90FB81F9E9CF8091B3
:10386000DF028160BACF8091DF028260B6CF8091A3
:10387000DF028460B2CF8091E0028160D9CF809175
:10388000E0028260D5CF8091DF028064A6CF0E94E3
:10389000E70E8091DF028068A0CF8091E002836014
:1038A000C7CF8091DF028E7F98CF8091E0028D7F1D
:1038B000BFCF8091DF028F7E90CF8091DF028F7D1E
:1038C0008CCF0E94E70E8091DF028F7786CF8091A8
:1038D000DF02837F82CF8091E0028C7FA9CF0E949C
:1038E000E70E9091DF02892F97FB87F9805875CFFB
:1038F0008091C5020631ECE51E0709F098C38A7A6B
:1039000091E009F490E09093520269E2811165E33D
:1039100086E991E00E948D060E9415076ECD809188
:10392000FB0280FF1BC08E7F8093FB026091FB0235
:103930007091FC028091FD029091FE020E94290E7E
:1039400010920103FFEF20E732E0F15020403040B9
:10395000E1F700C000000E9401124FCD0E94CF1875
:103960004CCD47ED58E160EE78E10E942E0945CD3F
:1039700040EE58E167ED78E1F8CF41E056E16AE0CA
:1039800076E1F3CF4AE056E161E076E1EECF49EE31
:1039900055E165EF75E1E9CF45EF55E169EE75E178
:1039A000E4CF41ED55E16DED75E1DFCF4DED55E132
:1039B00061ED75E1DACF4BE35EE06CE47EE0D5CFFC
:1039C0004CE45EE06BE37EE0D0CF65E082E00E94F5
:1039D000EA1813CD68E086E0FACF6EE089E0F7CF11
:1039E00064E18FE0F4CF67E185E1F1CF88E1DCCCE1
:1039F00062E289E1ECCF83E2D7CC0F3D8CE518077A
:103A000009F446C00930EDE51E0709F444C001156C
:103A10001C4509F047C00E94E70E2FEF34E38CE00D
:103A2000215030408040E1F700C00000F89481E070
:103A30008093E00080E28093D8001092C900EFE10B
:103A4000FEE43197F1F700C000001DBA1092680043
:103A50001CBC10BE1FBA10927A0010926E00109219
:103A60006F0010927100109272001092C9001092B3
:103A7000BC0014B817B81AB81DB810BA1092BC0020
:103A800015B818B81BB81EB811BA0C94003FB5CCC5
:103A90000E946C0EB2CC8091180391E0892780932C
:103AA0001803ABCCF70100811181992309F43DC0C3
:103AB000C8010E94A70BD82E682FC8010E94830757
:103AC000B8018D2D0E941C0A8C01682EF701A5807B
:103AD000A2944FE0A422D280D1101092C40280910F
:103AE000C202877099F0DD2089F0812F807F8034B9
:103AF00021F080E2800F883048F082E00E94BE0C06
:103B00008091C2028770CC24C3948111C12CB12E44
:103B1000B2943FE0B322FBE0FB1508F440C0EB2D6C
:103B2000F0E0EE5CF14D0C94E728C8010E945A07C2
:103B3000D82EC6CF212F2F70A22E107F19F0A2945D
:103B400020EFA222DD20C9F0AA2069F080E2800FD8
:103B5000883010F061100BC08091C502A82AA09295
:103B6000C5020E941507802F0E94660818C0809128
:103B7000C402A82AA092C402F4CF802F0E94340865
:103B8000AA2069F0A094005E083010F0611045C0D2
:103B90008091C502A822A092C5020E9415072B2D74
:103BA0002850330B2430310510F40E94D408CC2067
:103BB000A9F08091C20280FD11C0F70112828595A3
:103BC000859585950E94D60CC7010E94F7188091B3
:103BD000C2028595859585950E949B0C85E0F7012D
:103BE000D40101900D928A95E1F789819A810E9412
:103BF0005A079A81E981F0E026E0929FE00DF11DDD
:103C0000112434E5839FE00DF11D1124EE0FFF1FF9
:103C1000EF5AFC4F859194910FCB8091C402A8225A
:103C2000A092C402BACF312F3F70732E107F103292
:103C300019F0729490EF7922662041F081E06816C5
:103C400031F1DD2079F1AA2041F18DCFDD2091F015
:103C50009091C602872D892BA11003C00E94E60710
:103C60009ECFE1E0AE12FACF891709F498CF809386
:103C7000C60295CFA11006C00E940F07872D0E9493
:103C8000DB078DCFF1E0AF1609F489CFF5CFDD204A
:103C900031F021E02A1508F482CF872DDFCFA11063
:103CA0007ECFECCFAA2051F339E3631284C18FEFAA
:103CB00097EEE3E081509040E040E1F700C0000063
:103CC0007AC1812F86958695837061F0813009F0E5
:103CD00066CFC8019370D11002C090E080E00E94CE
:103CE000F0075DCFC8019370D11002C090E080E072
:103CF0000E94060854CF812F837009F066C0D1104E
:103D00004ECF802F829586958770880F880F602F01
:103D10006F70462E512C712C612C082E04C0440C5F
:103D2000551C661C771C0A94D2F740E050E0BA019B
:103D300004FF0FC04FE050E060E070E004C0440FAB
:103D4000551F661F771F8A95D2F74095509560954D
:103D50007095812F869586958370823019F1D8F4FD
:103D60000091C7021091C8022091C9023091CA0285
:103D7000813069F04429552966297729CB01BA0198
:103D800060237123822393230E942A0808CF402AAC
:103D9000512A622A732ACB01BA016429752986291E
:103DA0009729F2CF44295529662977290091C7021E
:103DB0001091C8022091C9023091CA02CB01BA0108
:103DC0006027712782279327DFCF8695DD2011F0AA
:103DD000812F8170882309F4E2CE802F8295869509
:103DE0008770880F880F602F6F70462E512C712CB2
:103DF000612C082E04C0440C551C661C771C0A94C8
:103E0000D2F740E050E0BA0104FF0FC04FE050E0AD
:103E100060E070E004C0440F551F661F771F8A954D
:103E2000D2F74095509560957095812F869586952F
:103E30008370823019F1D8F40091120310911303AA
:103E40002091140330911503813069F044295529DC
:103E500066297729CB01BA0160237123822393233A
:103E60000E94600C9CCE402A512A622A732ACB0100
:103E7000BA016429752986299729F2CF4429552941
:103E800066297729009112031091130320911403DE
:103E900030911503CB01BA01602771278227932740
:103EA000DFCF1F70DD2029F0812F0E94D60C802FDC
:103EB000D5CE802F0E94DB07812F0E949B0C6FCEF6
:103EC000802FF2EF6F1609F44EC0F61578F020EF50
:103ED000621619F131EF631609F43DC0DD2009F4D3
:103EE00065C0A11040CE812F8F713AC093EF691643
:103EF00009F43EC0E4EF6E12F1CFDD2009F44BC0AF
:103F00001F71812F0E94D60C28E0129FC00111243E
:103F100083608093C202812F23C0DD20B9F0A110FD
:103F20003ECE1F7161E070E080E090E004C0660F5B
:103F3000771F881F991F1A95D2F7009112031091CD
:103F400013032091140330911503A6CFF1E0FA1565
:103F500008F425CEE6CF812F8F71DD2009F4ADCF97
:103F60000E94D60C1CCE812F8F71DD20C9F3A5CF06
:103F700060E070E0CB01DD2009F472CF1F7161E0D9
:103F800070E080E090E004C0660F771F881F991FE3
:103F90001A95D2F765CF81E00E94BE0C31E03A1548
:103FA00008F0FDCD82E00E94BE0CF9CDAA2039F0C8
:103FB000893309F47CCE802F0E943408F0CD812F04
:103FC0008F717BCF1982F70182818111DDC982E176
:103FD0008A83F70180818B8381818C838EEF8D832F
:103FE00065E0C4010E944B0660C985E09E012F5F19
:103FF0003F4F4901D90101900D928A95E1F7F701F0
:10400000228189819A8121112EC90E945A07082F85
:1040100032C906311C4509F045CD8091520269E252
:10402000811165E386E991E00E94630675CC827296
:10403000F801E35CFC45E431F10508F0DECCE25C1C
:10404000F14D0C94E7281F93CF93DF938091580292
:10405000807FA9F480915502882389F080918A029B
:10406000D09159026091530270915402A09156026E
:10407000B0915702C62FC72316E0D81304C0DF91B2
:10408000CF911F91089590E0109711F0CF3F19F450
:1040900001968770F2CF189F9001199F300D11245F
:1040A000F901E65AFD4F41814713F2CF4081461393
:1040B000EFCF42814111ECCF438154814A1B5B0B0E
:1040C0004C37510528F7809158028F70806180939A
:1040D0005802F901E15AFD4F80818F708061808321
:1040E00083E592E00E94F718DF91CF911F910C9425
:1040F000D1078F929F92AF92BF92CF92DF92EF92B1
:10410000FF920F931F93CF93DF93CDB7DEB76197E5
:104110000FB6F894DEBF0FBECDBF8C0185E0F8016D
:10412000DE011D9601900D928A95E1F7D801EC9081
:104130001196DC9011971296CC90129783E5882EF9
:1041400082E0982E40915602509157024115510538
:1041500009F443C19091530220915402892F822384
:104160008F3F09F43AC11396AD90BC901497F0902C
:104170005502F501E41BF50BFF2009F4FFC0809107
:104180005802382F307FEC37F10508F0C8C03111E4
:1041900085C0FC2C2D1124C09E1122C0C11020C04E
:1041A0008F70806180935802C4010E94F71880913B
:1041B0005802D80115968C938F2D61960FB6F894FE
:1041C000DEBF0FBECDBFDF91CF911F910F91FF904A
:1041D000EF90DF90CF90BF90AF909F908F90089519
:1041E000A114B10429F08E2D8D218F3F09F016C145
:1041F00080E080FF14C04C2D6D2D8E2D0E94B107E4
:10420000882369F083E592E00E94F71886E0E3E5F1
:10421000F2E0DF011D928A95E9F7F12CCDCFAB28B2
:1042200029F08E2D8D218F3F09F0F5C080E0B82F49
:10423000B170AB2E80FF29C04C2D6D2D8E2D0E94AC
:10424000B107B82E811121C0ED86DE868D859E8551
:104250000E94E90B292F22952F70223050F0243034
:1042600078F49F7051F0F8019581907F31F4FB2C28
:10427000A3CF9F7011F08823D1F3805E8830B8F30C
:10428000C8010E94F718BA2CF2CFCC2009F494CFC1
:1042900080915802816080935802BFCF2D1112C0C7
:1042A0009E1110C0C1100EC015968C93C8010E94BB
:1042B000F71886E0F801A3E5B2E001900D928A9527
:1042C000E1F77ACFED86DE868D859E850E94F30B21
:1042D000882309F1CC20F9F080915802803270F0E7
:1042E000209153023091540238872F831986BB8660
:1042F000AA868C87CE0107960E94F71886E0F801FF
:10430000A3E5B2E001900D928A95E1F70E94232087
:10431000FF24F39451CFC8010E94F718F9CF33233B
:1043200009F470CF2D110FC09E110DC0C1100BC02C
:10433000F8018583C8010E94F71886E0D4011D9218
:104340008A95E9F739CFED86DE868D859E850E94B8
:10435000F30B882301F3CC20F1F2809158028032D4
:1043600068F220915302309154023A8329831B82D0
:10437000BD82AC828E83CE010196BECFEC37F105B3
:10438000E0F6FC2CCC2039F22D1116C09E1114C081
:104390008091580280FD8DCF982F907F09F489CFAE
:1043A000F8018583903F09F481CF982F907F905F2B
:1043B0008F70892B85837ACFED86DE868D859E85ED
:1043C0000E94F30B81119ACF8091580281608093F3
:1043D0005802C8010E94F718EFCECC2009F49BCFF9
:1043E000ED86DE868D859E850E94F30BF82E882350
:1043F00009F491CF86E0F801A3E5B2E001900D92B7
:104400008A95E1F780915302909154020E94E90B42
:104410000E942320D1CE81E08C2509CF81E08C251C
:10442000E8CE1F93CF93DF93CDB7DEB767970FB674
:10443000F894DEBF0FBECDBF4B8B5C8B6D8B7E8B3C
:104440008F8B1A8A198A85E0FE017396DE011D960C
:1044500001900D928A95E1F786E0FE013D96DE011E
:10446000179601900D928A95E1F7CE0107960E946A
:104470007920811112C086E0FE013796DE01119687
:1044800001900D928A95E1F78A859B85892B29F009
:104490008F81988589238F3FB1F516E080918A023C
:1044A0009091590289131DC067960FB6F894DEBF2C
:1044B0000FBECDBFDF91CF911F91089596E0929FDF
:1044C000D001939FB00D1124A65ABD4FFE01319625
:1044D00001900D929A95E1F7809359020E94D107BD
:1044E000DCCF819FC0011124865A9D4F0E94792004
:1044F0008823D1F280918A0290E0019687709927F3
:1045000080938A02CBCF2091590230E0C9010196F5
:104510008770992740918A024817190679F60E94F8
:10452000E70E1092590210928A0286E0E3E5F2E06B
:10453000DF011D928A95E9F7B0CF8F929F92BF92CB
:10454000CF92DF92EF92FF920F931F93CF93DF935F
:1045500080911B0190911C01892B91F08091B701F2
:104560008F5F8093B70181110BC00E94131690E0FA
:1045700090931C0180931B01892B11F40E94A10DC3
:1045800021ED822E22E0922E740110E000E097E0EF
:10459000C92EC00E802F0E94AD118C2D0E94AD112E
:1045A000802F0E948A16E70199917E01D12C8917EC
:1045B00029F0FE0131978083DD24D3948C2D0E9455
:1045C0008A16F7019681891709F47AC0868381E0FB
:1045D0008D29182B0E94F70C0F5F0730C1F60E943F
:1045E00000186091B9017091BA019093BA0180935B
:1045F000B9012091B80130E0261B370B820F931FC1
:104600006BEF70E00E94BF28E82E392F082F8093AF
:10461000B801F090BC01FF2009F4C0C01092BC01A9
:10462000E091CB02F091CC02AF01425F5F4F20E0FE
:104630008BEFB82E6BEF70E0A191AB3F99F0CA2ED3
:10464000D12C8E2D932F0A17E8F18C199D09092E74
:10465000000CAA0BBB0B4E97A105B105C8F1DF01F9
:104660001197BC924E175F0739F72093BC011111C7
:1046700002C0211195C01092BB01A091CB02B09154
:10468000CC029091BC01E7EEF2E080E03191E401D0
:1046900029914E01321751F03C913B3FD9F40C93D4
:1046A000AF0141505109EA01288391E01196D2E00F
:1046B000E53FFD0759F79093BC018093BB0174C09F
:1046C00080E086CFDB01AC19BD098A0F9B1FBFCFED
:1046D0002F2DC8CF81E0EACF9170892B09F491C0CA
:1046E0008091BE019091BF018130984780F0109277
:1046F0001803609112037091130380911403909139
:1047000015030E942C0C1092BF011092BE018091E3
:10471000BE019091BF0101969093BF018093BE01AD
:10472000E091E202F091E302309749F10190F081CB
:10473000E02D099581FF23C00E94230C812FDF917A
:10474000CF911F910F91FF90EF90DF90CF90BF908E
:104750009F908F9008950E94260C5AC0892B01F3D8
:104760001092BF011092BE01609112037091130369
:1047700080911403909115030E942C0CD1CF60916D
:1047800012037091130380911403909115030E94FA
:10479000C206833099F20E94170CD0CF11116BCF53
:1047A0008091BB01811167CF80911A0182FF17C0F0
:1047B0000E94001820914E0230914F02AC01421B22
:1047C000530B20911801309119014217530738F00B
:1047D000BC0180915002909151020E94E0088091AA
:1047E000BE019091BF0120911803222309F4B6CF96
:1047F000009709F071CF0E941D0C0E941A0C0E94B4
:10480000170CC091BD01CC2309F4A5CF0E941A0C4E
:1048100081E0C827C093BD0163CFCDB7DEB7C955CE
:10482000D1090FB6F894DEBF0FBECDBF84B7877F26
:1048300084BF0FB6F894A89580916000886180933A
:104840006000109260000FBE80E890E00FB6F89410
:1048500080936100909361000FBE85B7806885BF2B
:1048600085B7806885BF0E945B040E9428058091FF
:10487000E20084608093E200789480913E03882374
:10488000A1F01091E9001F709091EC00892F8170C8
:1048900090FD80E8182B1092E9008091E80083FDDC
:1048A0000E94FC0E1F701093E90082E084BD93E02B
:1048B00095BD9AEF97BD80936E000E94131690E00D
:1048C00090931C0180931B010E94F70C0E94060D1F
:1048D000E1EDF2E0A7EEB2E011921D9222E0EF3D91
:1048E000F207D1F78EE090E00E948F298093CB02EF
:1048F0009093CC02FC010E962BEF21938E179F070D
:10490000E1F790E080E00E94742D8F3E9E4F11F001
:104910000E946C0E89EA8093800089E08093810078
:1049200024982C983F988AB18F7C8AB96E98479AC0
:104930008BB180638BB9769A8FE090E00E946E2DE8
:104940006093CD027093CE028093CF029093D002F9
:104950006770FFEF6F9FB00111247595679575958E
:1049600067957727709389006093880070938B0018
:1049700060938A0070938D0060938C000E94A10D5B
:1049800090E080E00E94742D8F3E9E4F11F00E94B7
:104990006C0E82E090E00E94662D809303030E94DB
:1049A0001B0E9093E0028093DF0283E090E00E9470
:1049B000662D682F70E090E080E00E942A086091E8
:1049C00012037091130380911403909115030E94B8
:1049D0002C0C8091E102811136C090E080E00E94B1
:1049E000742D8F3E9E4F21F00E946C0E0E945D0E32
:1049F00088E090E00E946E2D6093FB027093FC02B1
:104A00008093FD029093FE026E7F71F40E945D0E12
:104A100088E090E00E946E2D6093FB027093FC0290
:104A20008093FD029093FE020E94330910920103CD
:104A30008091FB0280FF04C060E086950E9491187F
:104A400081E08093E10260911203709113038091E1
:104A50001403909115030E942C0C8DE191E090932A
:104A6000E3028093E202B8E1EB2EF12C87EE92E0B4
:104A70001EE0B12EB80E01E4C02ED12CCC0EDD1EEE
:104A8000F2E0CF0ED11C80913E03853001F5A0E409
:104A90009A2E8824839400E112E180913E038530B0
:104AA00009F4EBC00E94E70E0E94D4081092E602BF
:104AB0008091E502882349F08091FB028160809318
:104AC000FB0260E086950E9491180E947B180E946C
:104AD0009D22E4E0F3E0A7EEB2E010E000E0302F2A
:104AE0008D912191281709F430C190E09924939475
:104AF0002827422F492109F423C161969FAF61976E
:104B000062963FAF6297892191E009F490E0639645
:104B10009FAF63970E9400188160782F65969FAFC2
:104B20008EAF659761964FAD619762965FAD629764
:104B300063966FAD639765968FAD65970E9411225E
:104B4000F801EC5FFC4F80819826908280910103F0
:104B5000882309F44CC080910003E091FB02E695A4
:104B6000E81BE093F702823009F016C1F0E0EE5F37
:104B7000F94FE4910E2F10E0F7E18F2EF5E19F2E13
:104B80008091F802882389F01092F8020E940018A0
:104B9000980120953095820F931F9093F602809391
:104BA000F5021092FA021092F9022091F50230916A
:104BB000F6024FB7F8948091480390914903A09171
:104BC0004A03B0914B034FBF821B930B8017910791
:104BD00070F0E091F502F091F6020E0F1F1F109396
:104BE000F6020093F50285EF92E0F40109950E9428
:104BF000D40890910203891721F00E94D408809371
:104C0000020380913E03843009F03DCF8093E90098
:104C10008091E80082FF37CF8091E80090E085FF27
:104C200006C00E947A04882309F422C191E0809191
:104C3000E8008B778093E800992309F424CF198149
:104C4000111132C180911803882309F448C11092D0
:104C5000180381E08093170322961FAE22972396B4
:104C60001FAE23978EEF24968FAF249763E0CE017B
:104C70008F5B9F4F0E944B0606CF80913E0384308E
:104C800009F43DC01092E4020FB6F894A895E092A2
:104C900060000FBE90926000109201038091E602C6
:104CA000811116C08092E6028091FB02982F9170CC
:104CB0009093E5028E7F8093FB022FEF80E792E0D6
:104CC000215080409040E1F700C000000E94011296
:104CD00083B7817F846083BF83B7816083BF78940B
:104CE000889583B78E7F83BF0FB6F894A89580917F
:104CF0006000886180936000109260000FBE809118
:104D00003D03882309F4C9CE0E94131690E09093C6
:104D10001C0180931B010E94F70C0E94060DE7EE18
:104D2000F2E0119222E0E53FF207D9F70E949D22BE
:104D3000E7EEF2E08191811112C1BE12FBCFADCE40
:104D40009F5F990C963009F0D4CE0F5F1F4F0E3045
:104D5000110509F0C4CE8FEF66968FAF6697679600
:104D60008FAF679768961FAE68970E9400188160A2
:104D7000782F6A969FAF8EAF6A9766964FAD66970B
:104D800067965FAD679768966FAD68976A968FADC7
:104D90006A970E941122DACE863059F4F0E0E15091
:104DA000FA4FE4910E2F10E0EBE28E2EE5E19E2EFD
:104DB000E7CE893061F4E695F0E0E450FA4FE491F3
:104DC0000E2F10E07FEF872E72E1972ED9CE8F3015
:104DD00061F4E695F0E0E750FA4FE4910E2F10E011
:104DE00069E2862E63E1962ECBCE853159F4F0E050
:104DF000EA50FA4FE4910E2F10E058E9852E53E166
:104E0000952EBECE08E210E028EE822E23E1922EEF
:104E1000883109F4B5CE833249F4E4EFF5E0059129
:104E200014914CEB842E44E1942EAACE04EF11E0B1
:104E300091E7892E94E1992E843209F4A1CE85322E
:104E400081F48E2F63E00E94A528E92FF0E0EF5057
:104E5000FA4FE4910E2F10E036E7832E32E1932EC5
:104E60008FCE00ED17E086E4882E86E0982E88CE5F
:104E700000E410E0CE0101964C018091E80085FD30
:104E80000AC08091E8008B778093E8000E947A0442
:104E9000882399F3CBCE8091F100F40181934F01E7
:104EA0000150110951F7C2CE1130C9F422961FAE3C
:104EB000229723961FAF23978CE0EDE2F1E0D60115
:104EC00001900D928A95E1F78EEF60968FAF609713
:104ED0006FE0CE018F5B9F4F0E944B06D4CD809137
:104EE00017038823D1F1123041F01330F9F081E03B
:104EF00022968FAF229761E0BACE60911203709133
:104F0000130380911403909115030E94C206229608
:104F10001FAE229723961FAF239724968FAF249717
:104F20008EEF25968FAF259764E0A1CE8A818130E0
:104F300041F0882341F08230D1F681E0809316035E
:104F400002C01092160322961FAE229783E023968A
:104F50008FAF239780911603E0CF8FEFC9CF09BDA4
:104F600019BD09B400FEFDCF8091D8008F7D8093DC
:104F7000D8008091E00082608093E0008091E000A2
:104F800081FDFCCF0E94E70E88CD1F921FB61F92B5
:104F900011248F939F93AF93BF938091E40281116B
:104FA00013C08091480390914903A0914A03B091A6
:104FB0004B034196A11DB11D809348039093490373
:104FC000A0934A03B0934B03BF91AF919F918F91F0
:104FD0001F901FBE1F9018951092B9008CE080930F
:104FE000B8000895EF92FF920F931F93CF93DF9332
:104FF000182FEB011092BC0084EA8093BC000E9441
:1050000000187C018091BC0087FF27C08091B90007
:10501000887F883029F08091B900887F8031D9F568
:105020001093BB0084E88093BC000E9400188C01A0
:105030008091BC0087FF24C02091B900287F90E0B8
:1050400080E02831B1F081E090E0203411F490E06C
:1050500080E09195819591090CC0CF3FDC0791F2DA
:105060000E9400188E199F098C179D0758F28EEF29
:105070009FEFDF91CF911F910F91FF90EF900895D7
:10508000CF3FDC07A9F20E940018801B910B8C1700
:105090009D0770F2ECCF8FEF9FEFEBCF0F931F9335
:1050A000CF93DF93EB018093BB0084E88093BC0037
:1050B0000E9400188C018091BC0087FF11C02091D4
:1050C000B900287F81E090E0283211F490E080E080
:1050D000919581959109DF91CF911F910F9108953D
:1050E000CF3FDC0741F30E940018801B910B8C1707
:1050F0009D0708F38EEF9FEFEECF0F931F93CF9393
:10510000DF93EC0184E88093BC000E9400188C01BE
:105110008091BC0087FF08C08091BB0090E0DF91C8
:10512000CF911F910F910895CF3FDC0789F30E9423
:105130000018801B910B8C179D0750F38EEF9FEF8B
:10514000EECF84E98093BC000895991B79E004C0F8
:10515000991F961708F0961B881F7A95C9F78095B6
:10516000089587FB082E062687FD819567FD6195CA
:105170000E94A5280EF4919507FC81950895AA1B1D
:10518000BB1B51E107C0AA1FBB1FA617B70710F032
:10519000A61BB70B881F991F5A95A9F78095909564
:1051A000BC01CD01089597FB072E16F4009407D09B
:1051B00077FD09D00E94BF2807FC05D03EF49095EA
:1051C00081959F4F0895709561957F4F0895EE0FDB
:1051D000FF1F0590F491E02D09940E94022E3323C5
:1051E00012F48A1B9B0B0C94F7280E94022EB7FF27
:1051F0000895821B930B08952F923F924F925F92D6
:105200006F927F928F929F92AF92BF92CF92DF92D6
:10521000EF92FF920F931F93CF93DF93CDB7DEB73B
:10522000CA1BDB0B0FB6F894DEBF0FBECDBF0994CF
:105230002A88398848885F846E847D848C849B8426
:10524000AA84B984C884DF80EE80FD800C811B8134
:10525000AA81B981CE0FD11D0FB6F894DEBF0FBE63
:10526000CDBFED0108958F929F92AF92BF92CF92E2
:10527000DF92EF92FF92CF93DF93EC016881798107
:105280008A819B81611571058105910521F464E294
:1052900079ED8BE597E02DE133EF41E050E00E949E
:1052A000AE2D49015A019B01AC01A7EAB1E40E946D
:1052B000CD2D6B017C01ACEEB4EFA50194010E94F1
:1052C000DB2DDC01CB018C0D9D1DAE1DBF1DB7FF7D
:1052D00003C00197A109B04888839983AA83BB833F
:1052E0009F77DF91CF91FF90EF90DF90CF90BF90AD
:1052F000AF909F908F9008950E943329089580E089
:1053000091E00E9433290895B0E0A0E0809300016D
:1053100090930101A0930201B093030108950F93AC
:105320001F93CF93DF938230910510F482E090E0D9
:10533000E0915103F091520330E020E0B0E0A0E0B2
:10534000309799F42115310509F447C0281B390B12
:1053500024303105C0F58A819B816115710571F199
:10536000FB0193838283FE0111C040815181028140
:10537000138148175907F8F04817590799F41097FF
:1053800061F012960C93129713961C933296CF01EC
:10539000DF91CF911F910F910895009351031093C6
:1053A0005203F4CF2115310519F04217530718F4B1
:1053B0009A01BD01EF01DF01F801C2CF90935203C2
:1053C00080935103D0CFFE01E20FF31F819391939D
:1053D0002250310939832883DACF20914F0330914D
:1053E0005003232B41F420910601309107013093A3
:1053F000500320934F0320910401309105012115A2
:10540000310541F42DB73EB7409108015091090193
:10541000241B350B40914F03509150034217530703
:1054200008F0B5CF241B350B2817390708F4AFCF88
:10543000BC016E5F7F4F2617370708F4A8CF640FB3
:10544000751F7093500360934F03FA0181939193FA
:105450009ECFCF93DF930097E9F0FC013297138240
:105460001282C0915103D0915203DE0130E020E05E
:105470002097A1F420813181820F931F20914F0347
:10548000309150032817390709F067C0F093500393
:10549000E0934F03DF91CF910895DA01AE17BF0774
:1054A00008F040C012964D915C9113979D014115F3
:1054B000510599F7D9011396FC93EE9312974D91EC
:1054C0005D91A40FB51FEA17FB0779F480819181E4
:1054D0000296840F951FD90111969C938E93828119
:1054E000938113969C938E931297B0E0A0E08A81EB
:1054F0009B810097B9F5FE0181919191E80FF91F09
:1055000080914F03909150038E179F0719F61097C3
:1055100061F51092520310925103D0935003C0933F
:105520004F03B8CFB383A28340815181840F951F6D
:10553000A817B90771F44E5F5F4F8D919C91119739
:10554000480F591F5183408312968D919C919383EC
:1055500082832115310509F0ADCFF0935203E0931A
:10556000510398CFDE01EC01C2CF13961C921E921C
:105570001297D3CFFC014150504030F001900616F5
:10558000D1F73197CF010895882799270895AEE084
:10559000B0E0EDECFAE20C940A290D891E898F899E
:1055A000988D26E02C831A83098397FF02C080E040
:1055B00090E801979E838D83AE01455E5F4F698DB4
:1055C0007A8DCE0101960E94F72A4D815E8157FDAA
:1055D0000AC02F813885421753070CF49A01020F35
:1055E000131FF80110822E96E4E00C942629ABE0FC
:1055F000B0E0EDEFFAE20C94FC287C013B018A015B
:10560000FC0117821682838181FFB9C19AE0292E9D
:10561000CE0101965C01F7019381F30193FD859121
:1056200093FF81913F01882309F446C1853239F403
:1056300093FD859193FF81913F01853229F4B70154
:1056400090E00E94D82CE7CF912C412C512CFFE107
:10565000F51538F08B3209F188F4803201F183328C
:1056600021F157FC3AC020ED280F2A3040F556FEB4
:105670001FC0929C200D1124922E06C08D3291F0F5
:10568000803379F7689450F8F30193FD859193FF87
:1056900081913F018111DBCF20C0689451F868945B
:1056A00052F8F2CF689453F8EFCF689454F8ECCFE7
:1056B000429C200D1124422E689455F8E5CF8E327D
:1056C00029F456FCF9C0689456F8DECF8C3619F4EC
:1056D000689457F8D9CF8836B9F2982F9F7D9554A2
:1056E0009330C0F08336A1F18337C1F1833509F0DF
:1056F0005BC0F801C190D1908F01692D70E056FC1C
:1057000002C06FEF7FEFC6010E94C22C4C0168946B
:1057100057F80AC00C5F1F4F2FE329838824839416
:10572000912C6501E89457F853FC04C048141904FF
:1057300009F018F5342C8114910431F5332009F463
:105740006ACFB70180E290E00E94D82C3A94F6CF5D
:10575000F801808189830E5F1F4FE0CFF801C1906F
:10576000D1908F01692D70E056FC02C06FEF7FEF82
:10577000C6010E94CD2C4C01D5CFB70180E290E04C
:105780000E94D82C4A94D2CFF60157FC859157FE3F
:1057900081916F01B70190E00E94D82C31103A94AA
:1057A000F1E08F1A9108C7CF843619F0893609F0D5
:1057B00074C0F80157FE6AC0619171918191919115
:1057C0008F01252D2F76D22E97FF09C090958095B9
:1057D000709561957F4F8F4F9F4F6894D7F82AE05F
:1057E00030E0A5010E94082DC82ECA188C2C5D2C13
:1057F000D6FE0CC0E89450F8C91440F4D4FE05C09D
:10580000D2FC03C0FD2DFE7E5F2E892C54FE8FC07E
:10581000FE01EC0DF11D8081803309F081C0252D42
:10582000297E522E852D8870382E53FC8FC050FE55
:1058300089C09C2C841418F44C0C942C981854FE99
:105840008BC0B70180E390E00E94D82C52FE09C0C3
:1058500088E790E051FE02C088E590E0B7010E9421
:10586000D82CC91408F484C0CA94D12C9FEFC91A4B
:10587000D90ACA0CDB1CF60182916F01B70190E0D6
:105880000E94D82CAC14BD04B1F758CF619171912E
:10589000072E000C880B990B93CFD52CE894D4F8E5
:1058A0002AE030E0853739F1952D997FD92E8F3652
:1058B00001F148F48835A9F0F701868197812B968C
:1058C000E2E10C941829803749F08837A9F7D4FE13
:1058D00002C06894D2F820E130E00DC06894D4F89A
:1058E000F6CF54FE03C0E92FE660DE2E20E132E061
:1058F00002C028E030E0F801D7FE0DC0619171913F
:10590000819191918F01A5010E94082DC82ECA187E
:10591000E894D7F86BCF6191719190E080E0F2CF7D
:1059200052FC02C083947ECF839483947BCF852DD9
:10593000867809F477CFF6CFB70180E290E00E9435
:10594000D82C83948414C0F3312C79CF342C38189C
:10595000841408F474CFF8CF852D867809F481CFAC
:105960008BE251FE80E257FC8DE2B70190E077CFE9
:10597000B70180E390E00E94D82C9A9472CF8FEF09
:105980009FEF9DCFFC010590615070400110D8F74A
:10599000809590958E0F9F1F0895FC016150704077
:1059A00001900110D8F7809590958E0F9F1F089554
:1059B0000F931F93CF93DF93182F092FEB018B8148
:1059C00081FD09C01FEF0FEF812F902FDF91CF9145
:1059D0001F910F91089582FF14C02E813F818C8109
:1059E0009D81281739073CF4E881F981CF010196A0
:1059F0009983888310838E819F8101969F838E83F4
:105A0000E3CFE885F985812F0995892BA1F3DACFBA
:105A1000FA01AA27283051F1203181F1E8946F93DF
:105A20006E7F6E5F7F4F8F4F9F4FAF4FB1E03ED085
:105A3000B4E03CD0670F781F891F9A1FA11D680F23
:105A4000791F8A1F911DA11D6A0F711D811D911D56
:105A5000A11D20D009F468943F912AE0269F1124CB
:105A60003019305D3193DEF6CF010895462F47702F
:105A7000405D4193B3E00FD0C9F7F6CF462F4F708A
:105A8000405D4A3318F0495D31FD4052419302D0E8
:105A9000A9F7EACFB4E0A69597958795779567958E
:105AA000BA95C9F700976105710508959B01AC018E
:105AB0000A2E06945795479537952795BA95C9F7B5
:105AC000620F731F841F951FA01D0895F999FECFC3
:105AD00092BD81BDF89A992780B50895A6E1B0E0FE
