:100000000C94E8030C9405040C9405040C9405046A
:100010000C9405040C9405040C9405040C9405043C
:100020000C9405040C9405040C9491160C944D1634
:100030000C9427270C9405040C9405040C940504D7
:100040000C9405040C9405040C9405040C9405040C
:100050000C9405040C9468170C9405040C94050486
:100060000C9405040C9405040C9405040C940504EC
:100070000C9405040C9405040C9405040C940504DC
:100080000C9405040C9405040C9405040C940504CC
:100090000C9405040C9405040C9405040C940504BC
:1000A0000C9405040C9405040C9405040001010152
:1000B0000101010101010202020202020202020325
:1000C00003030303030303040404040404040505F5
:1000D00005050506060606060707070707080808B8
:1000E00008090909090A0A0A0B0B0B0C0C0C0D0D67
:1000F0000D0E0E0E0F0F0F101011111112121313FF
:100100001414151516161717181819191A1A1B1B77
:100110001C1D1D1E1E1F20202122222324242526D3
:1001200026272829292A2B2C2D2D2E2F303132320B
:10013000333435363738393A3B3C3D3E3F40414217
:10014000434445464748494A4C4D4E4F50515354FD
:10015000555658595A5B5D5E5F61626465666869B1
:100160006B6C6D6F7072737577787A7B7D7E808231
:10017000838587888A8C8E8F91939596989A9C9E7A
:10018000A0A2A3A5A7A9ABADAFB1B3B5B7BABCBE8A
:10019000C0C2C4C6C9CBCDCFD1D4D6D8DBDDDFE257
:1001A000E4E7E9EBEEF0F3F5F8FAFDFFFFAA7F557F
:1001B000402223252628292A2C2D2F30323335366C
:1001C000383A3B3D3E4042434547494A4C4E5051E8
:1001D000535557595A5C5E6062646668696B6D6F0F
:1001E00071737577797B7D7F81838587898A8C8E12
:1001F00090929496989A9C9E9FA1A3A5A7A8AAAC1A
:10020000AEAFB1B3B4B6B8B9BBBCBEBFC1C2C3C553
:10021000C6C7C9CACBCCCDCED0D1D2D2D3D4D5D6F5
:10022000D7D7D8D9D9DADADBDBDBDCDCDCDCDCDD28
:10023000DDDDDDDCDCDCDCDCDBDBDBDADAD9D9D80C
:10024000D7D7D6D5D4D3D2D2D1D0CECDCCCBCAC9A4
:10025000C7C6C5C3C2C1BFBEBCBBB9B8B6B4B3B1D3
:10026000AFAEACAAA8A7A5A3A19F9E9C9A9896946E
:1002700092908E8C8A89878583817F7D7B79777543
:1002800073716F6D6B6968666462605E5C5A595722
:10029000555351504E4C4A4947454342403E3D3BE1
:1002A0003A3836353332302F2D2C2A29282625236B
:1002B000220000000000000000000000000000001C
:1002C00000000000007E0F00D4FFFFFFC700000009
:1002D0007800000000000000002A2B280000000029
:1002E00000000000000000000000000029000000E5
:1002F000002C1E3420212224342627252E362D378B
:1003000038271E1F202122232425263333362E375B
:10031000381F0405060708090A0B0C0D0E0F1011F3
:1003200012131415161718191A1B1C1D2F31302300
:100330002D350405060708090A0B0C0D0E0F1011C8
:1003400012131415161718191A1B1C1D2F313035CE
:100350004C29003900E200A800354100001E0014BD
:100360000004001C0034004D001F001A0016001B82
:10037000003802E300200008000700060000614C7E
:100380000021001500090019002A004A0022001768
:10039000000A00050000006564AA00015800000280
:1003A000580000E300A90001580000000F0000E21F
:1003B0000023001D000B001100000029612400181B
:1003C000000D0010002C004B0025000C000E003624
:1003D000001E022800260012000F00370051002BDB
:1003E0000027001300330038712F004E002D00311C
:1003F000003468E500300000002E0001000100011B
:1004000000010000003A001E02200222022E002FEE
:100410005D3B001F02210223020100CA5C3C002F49
:100420000226022F000100CB5C3D00300227023083
:100430000001002E5D3E003102350035020000C48F
:100440005C010001000000010000002D5D010001C1
:1004500000000001000000C35C3F002E022D0025BB
:100460000200002C5D4000240021001E000100015C
:10047000004100250022001F002700C65C42002624
:1004800000230020003700C75C430024022E003107
:1004900000010001004400450001000100010000CE
:1004A00000010001002B00E200E000000001001448
:1004B0000050001D00095D01000100520051001BA9
:1004C0000001000100010008004F000600010001CA
:1004D0000001001500090019002C000100010001B5
:1004E0000001000100000001000100010000000106
:1004F00000000001000100010000000100000001F7
:100500000001000100500001000000010001000195
:100510000051000100010001000100010052000132
:100520000001000100010001004F00010001000175
:1005300000010001000100010001000100005C0158
:1005400000010001000100000032190A00047F3F91
:100550001F643214643214783C1E1E140A050A000B
:10056000000000000306B200080001000000A8001F
:10057000080002000200A0001400030057494E5575
:10058000534200000000000000000000840004004E
:1005900007002A00440065007600690063006500DA
:1005A00049006E007400650072006600610063001F
:1005B00065004700550049004400730000005000EA
:1005C0007B003900440042003700460031004600FD
:1005D00044002D0037004500370041002D00340055
:1005E0003000300038002D00390033003600420062
:1005F0002D00360042004100360043003100390032
:10060000410033003000380063007D00000000002E
:100610001B0301636F6E6669677572652E6572678D
:100620006F646F782D657A2E636F6D000501098008
:10063000A101850319012AB700150126B70095010C
:1006400075108100C0050C0901A101850419012A5A
:10065000A002150126A002950175108100C00501B8
:100660000906A1018505050719E029E715002501FF
:100670009508750181020507190029EF150025016C
:1006800095F0750181020508190129059505750187
:100690009102950175039101C005010906A10105AB
:1006A0000719E029E71500250195087501810295D4
:1006B00001750881010507190029FF150026FF00B3
:1006C000950675088100050819012905950575012C
:1006D0009102950175039101C009025200030100C6
:1006E000A0FA090400000103010100092111010021
:1006F000012240000705810308000A0904010001E6
:1007000003000000092111010001226D000705828C
:100710000320000A0904020002FF0000000705830D
:100720000340000507050403400005120110020004
:1007300000000897327549010001020001220345BB
:1007400000720067006F0044006F007800200045D1
:10075000005A0020005300680069006E0065000028
:100760000030035A0053004100200054006500632C
:100770000068006E006F006C006F00670079002059
:10078000004C00610062007300200049006E0063AD
:1007900000000004030904050F3900021C100500C5
:1007A000DF60DDD88945C74C9CD2659D9E648A9FD9
:1007B00000000306B20045001810050038B60834E2
:1007C000A909A0478BFDA0768815B66500014200F7
:1007D00011241FBECFEFDAE0DEBFCDBF23E0A6E9D4
:1007E000B1E001C01D92A335B207E1F711E0A0E02E
:1007F000B1E0E8E6FBE502C005900D92A639B1072D
:10080000D9F70E946F230C94732D0C940000E8ED2F
:10081000F0E080818E7F80831092E2001092DA00F7
:100820001092E100A0EEB0E08C9181608C93808109
:100830008F77808319BCA7EDB0E08C918E7F8C936D
:1008400080818F7E80831092190308952091E400A7
:100850003091E50095E6A9012091EC00822F81708E
:1008600020FF06C08091E80080FF06C080E0089568
:100870002091E80022FD1AC080913E03882389F070
:10088000853089F08091EB0085FD0FC02091E40058
:100890003091E50042175307F9F29150E1F684E0F8
:1008A000089582E0089583E0089581E00895EF922D
:1008B000FF920F931F93CF937C018B010E9426041C
:1008C000C82F882371F08C2FCF911F910F91FF902B
:1008D000EF900895F70181917F018093F10001501D
:1008E00011090115110579F38091E80085FDF2CF1A
:1008F0008091E8008E778093E8000E942604882388
:1009000081F3C82FE0CF8091400387FF13C080910F
:10091000E80082FF06C08091E8008B778093E800B2
:1009200004C080913E038111F2CF089580913E036F
:100930008823D9F38091E80080FFF8CF8091E80008
:100940008E77ECCF982F9093E900242F762F50E0EC
:10095000891731F07091EC002091ED005091F0007A
:1009600021FD07C09F5F973071F78093E90081E018
:1009700008953091EB003E7F3093EB003091ED0015
:100980003D7F3093ED003091EB0031603093EB0010
:100990007093EC002093ED005093F0002091EE0056
:1009A00027FDE0CF80E00895CF92DF92EF92FF9293
:1009B0000F931F93CF93DF93C8EDD0E088818F7E94
:1009C0008883E7EDF0E080818160808384E082BFEE
:1009D00081E08093190388818E7F888302EE10E086
:1009E000F80110821092DA0081EEC82ED12CF601A7
:1009F000108288818F778883888180688883888146
:100A00008F7D888319BC10923E0310923F03109291
:100A10003D0310923C0390EEE92EF12CF70180810A
:100A20008B7F808388818160888342E060E080E002
:100A30000E94A204F60180818E7F8083F80180816C
:100A400081608083808188608083F70180818E7FD0
:100A50008083888180618883DF91CF911F910F917E
:100A6000FF90EF90DF90CF900895FC0180914603B6
:100A70009091470386179707A0F06115710529F437
:100A80008091E8008E778093E80090E06115710511
:100A900051F4911108C08091E80082FF35C080E0D8
:100AA0000895BC01F2CF80913E038823C9F18530BF
:100AB000C9F18091E80083FD31C08091E80082FD9A
:100AC000EACF8091E80080FFE1CF8091F300209190
:100AD000F200382F6115710519F02830310558F0F2
:100AE00091E02830310509F090E08091E8008E77A0
:100AF0008093E800CBCF84918093F10031966150D0
:100B000071092F5F3F4FE6CF80913E03882341F06C
:100B1000853041F08091E80083FFBDCF81E00895EA
:100B200082E0089583E00895FC018091460390914E
:100B3000470386179707A0F06115710529F4909176
:100B4000E8009E779093E80090E06115710551F4FC
:100B5000911108C08091E80082FF34C080E00895C0
:100B6000BC01F2CF80913E038823C1F18530C1F1F1
:100B70008091E80083FD30C08091E80082FDEACFDB
:100B80008091E80080FFE1CF8091F3002091F20096
:100B9000382F6115710519F02830310558F091E0B2
:100BA0002830310509F090E02091E8002E7720935D
:100BB000E800CBCF81918093F100615071092F5FE4
:100BC0003F4FE7CF80913E03882341F0853041F0CD
:100BD0008091E80083FFBECF81E0089582E0089510
:100BE00083E008950895089580911B03089520914E
:100BF0003E03243099F423E02093E90070E050E0B4
:100C000040E00E945704882321F0109217031092AD
:100C100018038091E8008E778093E8000895209172
:100C200027012223C9F02091DF0227FF15C0E62FFC
:100C3000E695E695E695EE31D8F4E80FF92FF11D2B
:100C4000677021E030E001C0220F6A95EAF7209535
:100C50008281282322830895FC01329608962191EF
:100C6000621303C0DF0111971C92E817F907B9F767
:100C70000895209127012223C1F02091DF0227FF50
:100C800014C0E62FE695E695E695EE31F8F4E80F08
:100C9000F92FF11D677021E030E001C0220F6A9545
:100CA000EAF78281822B82830895FC0132962FEF2E
:100CB00030E04191641751F02F3F19F4411101C008
:100CC000232F3F5F3630A9F72F3F09F40895820F95
:100CD000911D27FD9A95FC0162830895CF92DF92C2
:100CE000EF92FF926C01EE24FF2420E0C114D104A6
:100CF000E104F10419F0C701B60120E1C72ED82E96
:100D0000E92EFF24C114D104E104F10419F0285F95
:100D1000C701B6016B017C0154E0F694E794D794C7
:100D2000C7945A95D1F7C114D104E104F10419F024
:100D30002C5FC701B6016B017C0142E0F694E79499
:100D4000D794C7944A95D1F7C114D104E104F104B2
:100D500019F02E5FC701B60196958795779567952F
:100D6000672B682B692B09F02F5F822FFF90EF9084
:100D7000DF90CF9008958091C60281111092C60233
:100D800008958091C5029091C402892B9091C3026D
:100D9000892B809396019091C6029923A1F0892B0B
:100DA0008093960180912701882341F18091DF0291
:100DB00087FF24C08EE1E8E9F1E090E0815000F582
:100DC00091110E94BB06E091E202F091E30230979C
:100DD000E1F080912701882359F08091DF0287FF9D
:100DE00007C0809196018093970185E080939601DA
:100DF0000280F381E02D86E991E0099486E0DBCF63
:100E000021912223D9F29F5FD9CF0895E92FEE0FC8
:100E1000E90FEE0F8E0F982F977086958695869521
:100E200025E0829FF0011124E557FD4F50E040E09E
:100E300080E0219130E0092E02C0369527950A9472
:100E4000E2F721703327042E01C0220F0A94EAF73B
:100E5000822B4F5F5F4F4530510559F70895E92FB9
:100E6000EE0FE90FEE0F8E0F982F977041E001C043
:100E7000440F9A95EAF786958695869595E0899F21
:100E8000F0011124E557FD4F30E020E070E0519172
:100E9000DF011197CB01022E02C0969587950A9427
:100EA000E2F7817081958527842385278C932F5FB6
:100EB0003F4F2530310559F7089580918A0290916E
:100EC0005902981301C008958F5F8770FACF882365
:100ED00041F080959091C50289238093C5020C94BE
:100EE000C1060895882339F09091C502982B9093FC
:100EF000C5020C94C106089520914C0230914D0218
:100F00002817390771F090934D0280934C02E091BD
:100F1000E202F091E302309721F00084F185E02DA8
:100F20000994089520914A0230914B0228173907FD
:100F300071F090934B0280934A02E091E202F091AB
:100F4000E302309721F00680F781E02D099408959F
:100F50001092C4021092C3020E94C10690E080E089
:100F60000E94920790E080E00C947C076093C70297
:100F70007093C8028093C9029093CA020C94A80788
:100F8000882379F19CEF980F913A38F4682F86E91D
:100F900091E00E940F060C94C10690E2980F9830E1
:100FA00088F4877021E030E0A90102C0440F551F8A
:100FB0008A95E2F7CA0180959091C50289238093B2
:100FC000C502E9CF9BE5980F933020F490E080E0D4
:100FD0000C949207885A873120F490E080E00C94BA
:100FE0007C070895CF93C82F882309F467C08CEF3E
:100FF0008C0F813AC0F580912701882311F18091EF
:10100000DF0287FF1EC0EC2FE695E695E695F0E03F
:10101000EA56FE4F828190E04C2F477021E030E08D
:1010200002C0220F331F4A95E2F782239323892BB4
:1010300091F06C2F86E991E00E940F060E94C10694
:101040000AC0E8E9F1E08EE991E02191C21789F345
:101050008E179F07D1F76C2F86E991E00E94390621
:10106000CF910C94C10680E28C0F883068F4C77071
:1010700021E030E001C0220FCA95EAF78091C50255
:10108000822B8093C502ECCFEBE5EC0FE33040F40C
:10109000F0E0EC59FE4F808190E0CF910C949207E4
:1010A000C85AC73158F4EC2FF0E0EE0FFF1FE95992
:1010B000FE4F80819181CF910C947C07CF91089550
:1010C000E091E202F091E302309721F00190F0818B
:1010D000E02D099480E008950F931F93CF93DF9341
:1010E0008C01EB0180911A0182FF2FC08B7F8093CE
:1010F0001A018091500220914E0230914F02AB01B3
:10110000421B530B209118013091190142175307CC
:1011100088F40E94F20780911A018D7F80931A0152
:10112000809150020E94C0078091C4028D7F8093FD
:10113000C40215C09091C40292609093C4020E94B0
:10114000F20780911A018260E9CF802F0E94C007C8
:1011500080915002909151020817190729F30E94BB
:10116000C106D0934F02C0934E02DF91CF911F91E1
:101170000F910895FA01811101C0FB01099480913A
:10118000FB02982F9E7F29F4817082608093FB027E
:1011900008958635E8F381708465F8CFAF92BF92E9
:1011A000DF92EF92FF920F931F93CF93DF93082F5D
:1011B000162FE901E42FF0E0E455FF4F611111C053
:1011C000E4915E2F4E2F4983E8835A831B82DF917F
:1011D000CF911F910F91FF90EF90DF90BF90AF9054
:1011E0000895E62EF12C4491D42EE42FF0E026E071
:1011F000829FC00111242FEF30E0B9010E94212805
:10120000802F90E0880F991F55E5569FD001579F7A
:10121000B00D11248A1B9B0B982F990F890F590130
:10122000AE18BF08AE9ED001AF9EB00DBE9EB00DF1
:1012300011245B2F189F80011124012F11275901C0
:10124000A01AB10AAE9E8001AF9E100DBE9E100D79
:1012500011245901A81AB108AE9CC001AF9C900D91
:10126000BE9C900D1124892F9927281B390B2E9F86
:10127000C0012F9F900D3E9F900D1124E92F6230E9
:101280007105A1F050F46115710509F49CCF61302E
:10129000710581F0EB2F512F96CF6430710569F005
:1012A00080F06630710509F48ECFF4CFE42F4B2F18
:1012B000592F89CFE42F412F86CFEB2F542F492F61
:1012C00082CF4B2F5D2DE12F7ECF9091DF0292FFD9
:1012D00006C0282F28712830F9F4877F846093FF97
:1012E00006C0282F28712831F1F4877E846120916F
:1012F000E00220FF06C0382F38713830D9F4877FDC
:10130000816021FF06C0282F28712831D1F4877E03
:10131000816194FD877E0895282F24712430F9F689
:101320008B7F8860DCCF282F2471243101F78B7EDE
:101330008861DDCF382F3171313019F78E7F8860A9
:10134000E0CF282F2171213121F78E7E8861E1CFF6
:10135000CF93DF93972F70E026E0929F600D711D71
:101360001124FB0134E5839FE00DF11D1124EE0FE4
:10137000FF1FEF5AFC4FC591D491CE01C238D10561
:10138000B9F1E8F5C133D10509F499C050F5C93276
:10139000D10509F48DC0CA32D10509F497C0C11531
:1013A00042E5D40708F0B6C0C11521E5D20708F020
:1013B00024C1C83ED10508F09DC0C03ED10568F5E6
:1013C000C83AD10508F089C0C53AD10508F0EDC08A
:1013D000C130D10511F1209709F443C02497E8F4F6
:1013E00040C0C533D10509F45CC0C933D105B9F695
:1013F0002091DF02237089F080EE90E00EC0C33EA2
:10140000D10591F168F4C03ED105F9F0C23ED10595
:1014100031F62091DF0222FD20C0DF91CF910895A7
:10142000C63ED10561F1C73ED10581F1C43ED1056B
:1014300009F0B5CF2091E00221FFEFCF8091DF02CC
:1014400084FD0FC087EE90E0E8CF2091DF0220FD01
:1014500001C13091E00230FFE0CF83EE90E024FF45
:10146000DCCF90E080E0D9CF2091DF0222FDF5C0F3
:101470003091E00230FDC0CF24FFCFCFF2CF2091DA
:10148000DF0223FFCACF24FDECCFDCCF2091DF02A7
:1014900023FDE6C03091E00231FFEECF84EE90E014
:1014A000BCCF2091DF0225FFB8CF89E290E0B5CF15
:1014B0002091DF0225FFB1CF85E390E0AECF2091F0
:1014C000DF0226FFAACF8AE290E0A7CF2091DF02B9
:1014D00026FFA3CF81E390E0A0CFCF3BD10508F654
:1014E000C85AD0E0CC0FDD1FC959DE4F88819981E1
:1014F000946493CFC11530E5D30708F062C0C115DD
:1015000040E4D40708F059C0DA95C115DF4108F46A
:1015100084CFA7CFC11536E5D30718F5C11545E52A
:10152000D40708F080C0C11584E5D80708F076C05C
:101530009C2F96959695AE0143705527C115D345BE
:1015400008F460C021E030E002C0220F331F4A954A
:10155000E2F740E2949FC0011124822B932B9A68FA
:101560005CCFC1153AE5D30778F4C11549E5D40736
:1015700008F063C0C11588E5D80708F472CF9C2F26
:101580008827806F906A49CFCE019056811590428E
:1015900008F067CF8D2F8F710E94650990E0982F1A
:1015A000882788279F718C2B46C0C55AD0E0CC591C
:1015B000DE4F888190E0906430CFCE019F70906ABA
:1015C0002CCF9E01E4E036952795EA95E1F723704C
:1015D0008C2F86958695837030E2839FC0011124FD
:1015E000922BC37021E030E002C0220F331FCA9556
:1015F000E2F7822B932B9C6810CF9C2F8827816F5A
:10160000906A0BCF21E030E002C0220F331F4A95D1
:10161000E2F740E2949FC0011124EBCF9C2F882772
:10162000846F906AFACE8C2F0E94650990E0982F03
:10163000882788279F719062F0CE8C2F8F700E9430
:10164000650934E0D695C7953A95E1F7CF709C2FA0
:101650009069E3CE89E390E0E0CE82EE90E0DDCECB
:1016600086EE90E0DACEBF92CF92DF92EF92FF92B9
:101670000F931F93CF93DF938C01C0901203D090F0
:101680001303E0901403F09015038091C70290912A
:10169000C802A091C902B091CA02C82AD92AEA2A6E
:1016A000FB2ACFE1D0E0BC2ED701C6010C2E04C02E
:1016B000B695A795979587950A94D2F780FD0EC0A9
:1016C000219788F7B12C8B2DDF91CF911F910F912E
:1016D000FF90EF90DF90CF90BF900895B8018C2FCE
:1016E0000E94A809019761F3EECFCF93DF93EC013D
:1016F0000E94330BBE01DF91CF910C94A8090E9488
:10170000750B292F2F7092959F7092509E3078F410
:10171000E92FF0E0EB58F24D0C944928803F19F086
:1017200020F4883E20F481E00895843FE1F380E0D6
:101730000895883EC0F3813FD1F7F5CF822F86957B
:1017400086958695089527982F98089526982E981F
:10175000089525982D98089556985E980895279A8B
:101760002F9A0895269A2E9A0895259A2D9A0895CB
:10177000CF92DF92EF92FF92CF936B017C010E9498
:101780006E06C82F0E94AC0B0E94A90B0E94A60BEC
:101790000E94A30BC150C73040F4EC2FF0E0ED578E
:1017A000F24D0C9449280E94B50BC701B601CF91A8
:1017B000FF90EF90DF90CF9008950E94B50B0E94AC
:1017C000B20BF3CF0E94B50B0E94AF0BEECF0E947D
:1017D000B50B0E94B20BF8CFCF92DF92EF92FF923F
:1017E000CF93DF9300D000D0CDB7DEB70E94B80B07
:1017F0006B017C0180911603882321F080911703EF
:10180000811115C0C0921203D0921303E092140309
:10181000F09215030E94A8070F900F900F900F9061
:10182000DF91CF91FF90EF90DF90CF9008951982D4
:1018300082E08A83C701B6010E946E068B838EEF19
:101840008C8364E0CE0101960E94F705DBCF0F93F5
:101850001F9341E050E060E070E004C0440F551F6A
:10186000661F771F8A95D2F7CB01BA0160957095F4
:101870008095909500911203109113032091140309
:101880003091150360237123822393231F910F91BD
:101890000C94EC0B9091C202809589238093C20234
:1018A000282F277071F4282F082E000C330B921765
:1018B000130639F08595859585950E94270C109221
:1018C000C20208950F931F9341E050E060E070E082
:1018D00004C0440F551F661F771F8A95D2F7809169
:1018E000120390911303A0911403B09115038A0180
:1018F0009B01082B192B2A2B3B2BC901B8011F91E7
:101900000F910C94EC0B20982898219829982298F4
:101910002A9823982B9852985A9853985B983E98F7
:10192000469808958098889A8198899A84988C9A84
:1019300085988D9A86988E9A87988F9A0895CF93D6
:10194000DF9300D00F92CDB7DEB790913E03943075
:1019500019F589837B836A8382E08093E9008FEFA6
:101960009091E800815095FD06C095ED9A95F1F7AC
:1019700000008111F5CF8091E80085FF0DC050E097
:1019800040E063E070E0CE0101960E945704809130
:10199000E8008E778093E8000F900F900F90DF9112
:1019A000CF910895BC0184E00C949F0CBC0183E0AE
:1019B0000C949F0CCF93DF93EC0180912701882337
:1019C000B1F18091DF0287FF32C060E282E0809354
:1019D000E9008FEF9091E800815095FD06C095EDEC
:1019E0009A95F1F700008111F5CF8091E80085FF0D
:1019F0001BC08091270170E050E040E0811104C0DD
:101A000050E040E068E070E0CE010E945704809111
:101A1000E8008E778093E80080E2FE01ACE1B3E05D
:101A200001900D928A95E1F7DF91CF91089568E0DA
:101A300081E0CDCFCF93C82F0E94F207C93349F47C
:101A40002FEF87EE93E0215080409040E1F700C0F7
:101A500000008C2FCF910C94C007EF92FF920F9350
:101A60001F93CF93DF930E94AC0B0E94A90B0E949F
:101A7000A60B0E94A30B88E8E82EF12C8FEF90E0D4
:101A8000F701918380830AE810E0F8019183808355
:101A9000CCE8D0E0998388830E94B50BFFEF20E764
:101AA00082E0F15020408040E1F700C000000E9439
:101AB000B20B9FEFE0E7F2E09150E040F040E1F739
:101AC00000C000000E94AF0B2FEF80E792E0215092
:101AD00080409040E1F700C000000E94A90BEFEFAA
:101AE000F0E722E0E150F0402040E1F700C00000C4
:101AF0000E94A60B8FEF90E7E2E081509040E0401B
:101B0000E1F700C000000E94A30B8091CD02877016
:101B1000FFEF8F9FC0011124959587959595879527
:101B20009927F70191838083F801918380839983BA
:101B300088830E94AC0B0E94A90B0E94A60BDF9128
:101B4000CF911F910F91FF90EF900C94A30BCF9327
:101B500084E090E00E94C82CC82F81E290E00E94AF
:101B6000C82C982F8C2FCF910895CF92DF92EF92AF
:101B7000FF926B017C010E94BF08B701A60188E0BB
:101B800090E0FF90EF90DF90CF900C94EE2C80913E
:101B9000FF02882319F081508093FF026091FB02BD
:101BA0007091FC028091FD029091FE020C94B50DA3
:101BB0008091FF02833018F48F5F8093FF02609161
:101BC000FB027091FC028091FD029091FE020C9448
:101BD000B50DEBEFF2E083E0808311828FEF82831B
:101BE0008383148260817181828193810C94B50D0D
:101BF0006FEE7EEF90E080E00E94FA2C60E082E0E1
:101C000090E00E94DC2C60E083E090E00E94DC2CFD
:101C10001092C7021092C8021092C9021092CA0212
:101C200060E084E090E00E94DC2C60E081E290E0E3
:101C30000E94DC2C60E085E090E00E94DC2C60E0FB
:101C400086E090E00E94DC2C6FEF87E090E00E943D
:101C5000DC2C40E050E0BA0188E090E00E94EE2CDD
:101C600060E08DE090E00E94DC2C40E050E0BA01A2
:101C700088E190E00E94EE2C60E087E190E00E9415
:101C8000DC2C40E050E0BA018CE190E00E94EE2CA8
:101C900060E080E290E00E94DC2C40E050E0BA017D
:101CA00088E190E00E94EE2C1092CD021092CE02BC
:101CB0001092CF021092D00284E080618093CD0216
:101CC0004091CD025091CE026091CF027091D0022E
:101CD0008FE090E00E94EE2C40E050E0BA0183E1FA
:101CE00090E00C94EE2C1092C50280912701E8E957
:101CF000F1E0882359F08091DF0287FF07C08EE171
:101D0000DF011D928A95E9F70C94A80786E0F8CFC9
:101D10001F93CF93DF93CDB7DEB7AA970FB6F89492
:101D2000DEBF0FBECDBF80E493E02091F100FC0147
:101D30002193CF01F3E088349F07B9F780914103E5
:101D4000893009F444C018F5823009F4B7C08330F3
:101D500009F46CC0813031F580914003813A11F56E
:101D60008091E800877F8093E80080914403909100
:101D70004503892B41F560E28CE193E070E00E941D
:101D800094058091E8008B778093E8000BC08B303E
:101D900009F469C008F481C0823409F4A0C0853414
:101DA00009F4BAC08091E80083FF4BC280914003E0
:101DB000909141039A3008F044C2E92FF0E0E657D1
:101DC000F24D0C94492860E090E080E0D7CF8091FC
:101DD0004003813239F78091440390914503029783
:101DE00008F78091E800877F8093E8008091E80001
:101DF00082FF17C09091F3008091F200029729F4BE
:101E00008091F1008B7F813021F48091F1008093EB
:101E10001B038091E8008B778093E8000E94830485
:101E2000C1CF80913E038111E1CFBCCF80914003AF
:101E3000813A09F0B7CF8091440390914503892BF3
:101E400009F0B0CF8091E800877F8093E80080910F
:101E5000E80080FFFCCF809127018093F100809102
:101E6000E8008E77D9CF80914003813209F09ACF74
:101E70008091440390914503892B09F093CF809181
:101E8000E800877F8093E8000E94830480914203EA
:101E9000809327010E94730E85CF80914003813289
:101EA00009F080CF8091E800877F8093E8000E944E
:101EB00083048091430380931A0374CF809140037D
:101EC000813A09F06FCF8091E800877F8093E80026
:101ED0008091E80080FFFCCF80911A03BECF8091F3
:101EE0004003803C09F05ECF80914403909145030C
:101EF000029739F58091420390914303892B09F5AC
:101F00008091E800877F8093E8006BE170E080E1DA
:101F100096E00E94350582CF80914003803C09F015
:101F200041CF8091440390914503079751F48091EC
:101F3000E800877F8093E80062EB70E08EE595E033
:101F4000E8CF8091EB0080628093EB002BCF80384C
:101F500099F0823809F075C1809144038F70873001
:101F600008F06FC18093E9008091EB0085FB882722
:101F700080F91092E90006C080913C0390913D03E6
:101F8000911182609091E800977F9093E800809390
:101F9000F1001092F1008091E8008E774EC1882305
:101FA00009F43CC1823009F04CC180914203811197
:101FB0003FC1809144038F702FEF280F263008F027
:101FC00040C18093E9002091EB0020FF31C19330A4
:101FD00031F48091EB0080628093EB0029C19091F5
:101FE000EB0090619093EB0021E030E001C0220F04
:101FF0008A95EAF72093EA001092EA008091EB00BC
:102000008860EACF81111DC1109142031F77809132
:10201000E3008078812B8093E3008091E800877F44
:102020008093E8000E9483048091E80080FFFCCF49
:102030008091E30080688093E30082E0111183E0E7
:1020400080933E03FEC08058823008F0FAC0809131
:102050004203909143038C3D23E09207A1F583E076
:102060008A838AE289834FB7F894DE01139620E0D1
:102070003EE051E2E32FF0E050935700E49120FF5F
:1020800003C0E295EF703F5FEF708E2F90E0EA3073
:10209000C0F0C7968D939D932F5F243159F74FBFA2
:1020A0008091E800877F8093E8006AE270E0CE01CB
:1020B00001960E9494058091E8008B778093E80058
:1020C000C0C0C096E7CF4091440350914503292FEB
:1020D00033272330310551F1A0F42130310509F4C3
:1020E00052C062E570E089ED96E02230310509F0DA
:1020F000A8C02091E800277F2093E8000E943505C2
:10210000DACF2132310539F12232310581F12F3018
:10211000310509F096C0E9E9F7E0649170E087E9DC
:1021200097E06115710509F48CC0E3CF99278130E0
:10213000910571F0009731F0029709F082C0EDE34C
:10214000F7E002C0E3E9F7E0649170E0CF01E9CF86
:10215000E1E6F7E0F9CF41155105D1F041305105E5
:1021600009F06FC069E070E084E097E0C2CF4115EC
:10217000510599F04130510509F063C06DE670E0FA
:102180008CE296E0B6CF62E170E08BE297E0B1CFEF
:1021900069E070E08BEE96E0ACCF60E470E089E936
:1021A00096E0A7CF803809F04CC08091E800877F87
:1021B0008093E80080913F038093F100ECCE811181
:1021C00040C0109142031230E0F58091E800877F13
:1021D0008093E80010933F030E948304112311F0C1
:1021E00084E005C08091E30087FDFACF81E0809311
:1021F0003E0342E061EC81E00E94A20442E261EC15
:1022000082E00E94A20442E361EC83E00E94A20407
:1022100042E360EC84E00E94A20413C08091420378
:10222000813079F481E0933009F080E080933D03C0
:102230001092E9008091E800877F8093E8000E9477
:1022400083048091E80083FF0AC08091E800877FC3
:102250008093E8008091EB0080628093EB00AA9667
:102260000FB6F894DEBF0FBECDBFDF91CF911F91A7
:102270000895CF93C82F873070F580911B019091FE
:102280001C01892B89F564E670E080E40E945427E4
:1022900090931C0180931B01892BD1F464E670E0BC
:1022A00082E10E94B02790931C0180931B01892B2F
:1022B00079F481E090E001C0880FCA95EAF764E6FE
:1022C00070E080950E94B02790931C0180931B01C1
:1022D000CF910C9403288A30B9F040F4883071F023
:1022E000893079F0209A2898CF9108958C3091F018
:1022F00070F08D30B9F73E9A4698F6CF219A29981A
:10230000F3CF229A2A98F0CF239A2B98EDCF529AA6
:102310005A98EACF539A5B98E7CFCF93DF93809197
:10232000FB0280FD0BC0E3ECF1E01182108212820F
:102330001382349651E0EF3FF507B9F7C3ECD1E0D3
:10234000FE01928120813181892F291708F4822F83
:10235000381708F4832F8383381B3183281B20838D
:10236000981B9283349681E0EF3FF80751F70E9463
:102370004E2764E670E084E80E94542764E670E02B
:1023800088810E94B02764E670E089810E94B027AE
:1023900064E670E08A810E94B02764E670E08B8179
:1023A0000E94B027249691E0CF3FD90739F70E94C9
:1023B0000328579A3BB13F772BB120684FB7F89469
:1023C00083EC91E0FC015191CF0168E02BB9000052
:1023D00000C057FF3BB9550F000000C000C000C04F
:1023E0003BB900C06A9591F7F1E08F3F9F0751F725
:1023F0004FBF8FE594E00197F1F700C00000DF9137
:10240000CF9108958F929F92AF92BF92CF92DF9219
:10241000EF92FF920F931F93CF93DF93FC01B28053
:10242000948081E08483CFEFD1E003EC11E08BE472
:10243000A82E88248394EE24EA94F12C2BE4C22E57
:10244000D12C91101DC01B821A8298014A8169818A
:1024500088810E94CE0825960C5F1F4F82E0CA3407
:10246000D80779F7DF91CF911F910F91FF90EF90EF
:10247000DF90CF90BF90AF909F908F900C948D1174
:102480002B81222309F121502B833C818A2D821B31
:10249000311101C0822F9091FE02899FC001112449
:1024A000B6010E9421286A83211104C0332311F050
:1024B0001C82AB8222E02B1540F28091FC028883C3
:1024C0008091FD028983C1CF0E94E1288230914032
:1024D0000CF0BBCF82E08B15C0F40E94E128B7015D
:1024E0000E943528888322E02B1590F40E94E12871
:1024F0002091FD022695622F70E00E943528280F5A
:1025000029831A82AB828C82A0CF8091FC02EACF11
:102510002091FD02F5CFEF92FF921F93CF93DF93AF
:10252000EC0183ECE82E81E0F82E10E08C8197011D
:102530004091FE026091FD02810F0E94CE081F5E55
:1025400084E0E80EF11C1F3F89F70E948D119A81EB
:102550008C8190FF08C08F5F8C83DF91CF911F919A
:10256000FF90EF9008958150F7CFBF92CF92DF9206
:10257000EF92FF920F931F93CF93DF93FC01828121
:10258000DD24DA9480FD02C0DD24D39403EC11E055
:10259000D0E0C0E02FE0B22EF8011182108212824A
:1025A000138294E0E92EF12CC12C8091C0018C0D96
:1025B00080310CF43DC06B2D0E941328892F082E0A
:1025C000000C990B8C179D0791F48091FE028E9D53
:1025D000A0018F9D500D1124559547955595479510
:1025E00098016091FD028091FC020E94CE08CD0C02
:1025F000F1E0EF1AF108C9F621960C5F1F4FCF30BA
:10260000D10551F60E948D118091C00191E0D9123F
:1026100015C0811111C08EE08093C001DF91CF9170
:102620001F910F91FF90EF90DF90CF90BF90089592
:1026300087FFC5CF815FC3CF8150EECF90E0019679
:10264000BE010E943528E8CF0F931F93CF93DF93ED
:10265000C3ECD1E0FE011182108212821382349603
:1026600081E0EF3FF807B9F710E000E08091C10189
:10267000082E000C990B081719078CF18091160190
:10268000082E000C990B801791074CF19E01409188
:10269000FE026091FD028091FC020E94CE080F5F55
:1026A0001F4F24960F30110509F70E948D1180915C
:1026B00015019091C101980F9093C10120911601CD
:1026C000280F20931601121614F49E301CF08195E9
:1026D00080931501DF91CF911F910F910895198279
:1026E00018821A821B82DBCF8F929F92AF92BF9289
:1026F000CF92DF92EF92FF920F931F93CF93DF93CE
:10270000EC014C81042F10E09801D8010E94642D47
:102710009B01AC010E942F2D4B015C01E0E2F0E037
:10272000E01BF10BA5E5B0E0AC019B010E942F2D51
:102730006B017C019F01DF010E944F289B01AC01CE
:102740000E943A2D9B01AC01280D391D4A1D5B1DCD
:10275000C701B6010E94422DF22E822F90E039E28D
:102760003F15D8F143E0249F90011124359527951A
:10277000122F109593ECC92E91E0D92E00E085E53B
:10278000E82EEF188E2D01FD8F2D9601412F6091BF
:10279000FD020E94CE080F5F54E0C50ED11C0F3021
:1027A00089F70E948D119C8181E0992319F0903264
:1027B00019F48FEF8093170180911701890F8C8393
:1027C000DF91CF911F910F91FF90EF90DF90CF900D
:1027D000BF90AF909F908F90089525E530E0A901BC
:1027E000481B590BCA019A01220F331F280F391FAA
:1027F00037FFBCCF2F5F3F4FB9CFEF92FF920F93C0
:102800001F93CF93DF938C01C3ECD1E0F12CE12C2B
:10281000F80194816091FD028091FC02F7E0EF16CF
:10282000F104FCF49923F9F09E014091FE020E940C
:10283000CE082FEFE21AF20A24968FE0E816F10490
:1028400039F70E948D11F801848190E00196817022
:1028500099278483DF91CF911F910F91FF90EF9083
:102860000895992309F39E0140E0E1CF9091FB0286
:1028700090FF0DC0E3ECF1E081836083428313821B
:10288000349691E0EF3FF907B9F70C948D11089554
:102890000F931F93CF93DF9300D000D0CDB7DEB757
:1028A0008C018091C20181110AC09E012F5F3F4FB0
:1028B0004FEF6FEF0E94CE088A818093C201F8012A
:1028C0006481613069F08091C20140E0662361F06B
:1028D00040E0623011F44091C20180E060E004C049
:1028E0006091C20140E080E00E943614F8018481CA
:1028F00090E0019663E070E00E94352884830F9099
:102900000F900F900F90DF91CF911F910F9108952D
:10291000CF93DF9300D000D0CDB7DEB79091FB020C
:1029200090FF0AC09E012F5F3F4F0E94CE084B814F
:1029300069818A810E9436140F900F900F900F903A
:10294000DF91CF910895CF93DF93EC01EC81F0E01C
:10295000EF54FE4F4491EBEFF2E0628181810E94DF
:1029600088148C818F5F8C83DF91CF910895CF93F2
:10297000DF93EC01EBEFF2E0438162818C810E94F6
:1029800088148C818F5F8C83DF91CF9108955F9243
:102990006F927F928F929F92AF92BF92CF92DF926F
:1029A000EF92FF920F931F93CF93DF9300D000D04D
:1029B000CDB7DEB7182F762E042F622E9091FB0232
:1029C00090FF29C0E92FE695AE2FB0E0A75CBE4F7F
:1029D0008C91809300039E7F923089F59E012F5F3A
:1029E0003F4F812F0E94CE084B8169818A810E94CE
:1029F00036141093FC027092FD020093FE026620D2
:102A000051F06091FB027091FC028091FD02909167
:102A1000FE020E94B50D0F900F900F900F90DF9166
:102A2000CF911F910F91FF90EF90DF90CF90BF90CB
:102A3000AF909F908F907F906F905F9008958230BD
:102A400019F40091FE02D5CF863019F41091FC02E2
:102A5000D0CF8930D9F3893161F6E9518E2F817059
:102A6000582EE695F0E0E455FE4FA590B490BB24B7
:102A700083ECE82E81E0F82ED12CC12C9FE0892E2A
:102A8000912CC601B4010E942128812F511013C03E
:102A9000860F9701402F672D0E94CE08CA0CDB1CC1
:102AA00084E0E80EF11C8FEFE81681E0F80649F7A4
:102AB0000E948D119ECF861BECCFEBEFF2E043819D
:102AC0002CE0421B08F440E021E0628181810C94FB
:102AD000C714EBEFF2E043812CE0420F08F44FEF14
:102AE00021E0628181810C94C714EBEFF2E06281F6
:102AF0002FEF621B08F460E021E0438181810C9498
:102B0000C714EBEFF2E062812FEF620F08F46FEF72
:102B100021E0438181810C94C714EBEFF2E08181C5
:102B200021E0438162818C500C94C714EBEFF2E0FA
:102B3000818121E043816281845F0C94C71480E22B
:102B400090E090931C0180931B018091B60181114C
:102B50000EC00E944E2781E08093B6012FEF83EDD7
:102B600090E3215080409040E1F700C0000064E60F
:102B700070E080E40E94542790931C0180931B0115
:102B8000892B09F04EC064E670E080E00E94B02717
:102B900090931C0180931B01892B09F042C064E6CD
:102BA00070E080E00E94B02790931C0180931B018D
:102BB000892BB9F564E670E08FE30E94B02790930B
:102BC0001C0180931B01892B61F50E94032864E698
:102BD00070E080E40E94542790931C0180931B01B5
:102BE000892BF9F464E670E08CE00E94B0279093A2
:102BF0001C0180931B01892BA1F464E670E080E046
:102C00000E94B02790931C0180931B01892B49F4EB
:102C100064E670E08FE30E94B02790931C018093DC
:102C20001B010E94032880911B010895CF938730D8
:102C300050F580911B0190911C01C0E0892B71F42B
:102C400064E670E081E40E94542790931C01809315
:102C50001B01892B31F0C0E00E9403288C2FCF91FB
:102C6000089584E690E00E94DF2797FF05C09093C7
:102C70001C0180931B01EFCFC82FC09510921C013F
:102C800010921B01E9CFCFB18FB1869586958C73D9
:102C9000C3708C2BC82FC095E1CF1F920F920FB637
:102CA0000F9211242F933F934F935F936F937F93D2
:102CB0008F939F93AF93BF93CF93DF93EF93FF9344
:102CC000D091E900DF708091EC00C82FC17080FDC9
:102CD000C0E81092E9008091F000877F8093F000B7
:102CE00078940E94880E1092E9008091F00088602C
:102CF0008093F000CD2BCF70C093E900FF91EF914E
:102D0000DF91CF91BF91AF919F918F917F916F9103
:102D10005F914F913F912F910F900FBE0F901F9099
:102D200018951F920F920FB60F9211242F933F9375
:102D30004F935F936F937F938F939F93AF93BF93C3
:102D4000EF93FF938091E10082FF09C08091E20040
:102D500082FF05C08091E1008B7F8093E10080912C
:102D6000DA0080FF24C08091D80080FF20C08091CD
:102D7000DA008E7F8093DA008091D90080FF9BC0BB
:102D800080E189BD82E189BD09B400FEFDCF81E00B
:102D900080933E0380911903811109C00E940704AA
:102DA0000E94D4048091E20084608093E2008091CC
:102DB000E10080FF17C08091E20080FF13C0809186
:102DC000E2008E7F8093E2008091E2008061809338
:102DD000E2008091D80080628093D80019BC85E021
:102DE00080933E038091E10084FF29C08091E2003E
:102DF00084FF25C080E189BD82E189BD89B5982F16
:102E0000917080FFFBCF8091D8008F7D8093D80098
:102E10008091E1008F7E8093E1008091E2008F7EBF
:102E20008093E2008091E20081608093E2008091D3
:102E30003F03882309F445C084E080933E038091DA
:102E4000E10083FF27C08091E20083FF23C08091CF
:102E5000E100877F8093E10082E080933E0310923F
:102E60003F038091E1008E7F8093E1008091E2003A
:102E70008E7F8093E2008091E20080618093E20087
:102E800042E060E080E00E94A2048091F00088604F
:102E90008093F000FF91EF91BF91AF919F918F913F
:102EA0007F916F915F914F913F912F910F900FBE46
:102EB0000F901F90189519BC10923E0310921903A1
:102EC00076CF8091E30087FD93E090933E03B7CFE8
:102ED00078941F921FB61F9211248F939F93AF93E4
:102EE000BF938091480390914903A0914A03B09108
:102EF0004B030196A11DB11D809348039093490394
:102F0000A0934A03B0934B03BF91AF919F918F91D0
:102F10001F901FBE1F9018952FB7F89480914803FB
:102F200090914903A0914A03B0914B032FBF08959C
:102F30000F931F93CF93DF93C62FD42F022FFC0143
:102F400082818823A1F060934E030E948C17909396
:102F50004D0380934C03C77081E001C0880FCA9570
:102F6000EAF7DF91CF911F910F910C947207809136
:102F70004E03681340C020914C0330914D034FB76E
:102F8000F8948091480390914903A0914A03B0912D
:102F90004B034FBF821B930B883C910560F510E2F9
:102FA0001D0F6D17B9F080E2860F883040F4C770AE
:102FB00081E001C0880FCA95EAF70E9467071830C0
:102FC00048F481E09D2F977001C0880F9A95EAF729
:102FD0000E947207802F0E941A0D183098F4D77043
:102FE00081E001C0880FDA95EAF7DF91CF911F9158
:102FF0000F910C946707C77081E001C0880FCA95D4
:10300000EAF7F3CFDF91CF911F910F91089560916F
:10301000FB02669570E04BE050E08AE091E00E9490
:103020001C2A892B19F481E0809301030E948C17DC
:103030009093F6028093F50208959091FB0290FF21
:1030400036C09170811129C092609093FB02662373
:1030500051F06091FB027091FC028091FD02909111
:10306000FE020E94B50D6091FB02669570E04BE098
:1030700050E08AE091E00E941C2A892BA9F010926E
:10308000010381E08093F80220E04091FE0260910C
:10309000FD028091FC020C94C7148B3210F09465F1
:1030A000D4CF880F982BD1CF0E940718EACF08956C
:1030B00061E00C941D18EBEFF2E080818160808369
:1030C00086950C9458188091FB028695815009F4DE
:1030D0008AE261E00C941D188091FB0286958F5F57
:1030E0008B3208F081E061E00C941D189091FB0296
:1030F00090FF07C09695981720F0961710F40C943F
:103100006C180C9458184F925F926F927F928F9226
:103110009F92AF92BF92CF92DF92EF92FF920F9366
:103120001F93CF93DF93CDB7DEB728970FB6F894F0
:10313000DEBF0FBECDBF7C01FC0183819481892B52
:1031400039F01081D180812F8D218F3F09F0D9C6B0
:1031500028960FB6F894DEBF0FBECDBFDF91CF919A
:103160001F910F91FF90EF90DF90CF90BF90AF90A5
:103170009F908F907F906F905F904F9008950E94E6
:10318000330B082F682F89819A810E942F07E12F26
:10319000F0E026E0D29EE00DF11D112434E5039FFE
:1031A000E00DF11D1124EE0FFF1FEF5AFC4F0591AA
:1031B000149180911603882321F0809117038111C7
:1031C0008DC60A32FDE51F0709F06CC0F701828148
:1031D0008823C9F18091CD0291E0980F9770887F84
:1031E000953008F4892B8093CD028091CD028770B1
:1031F000FFEF8F9FC0011124959587959595879531
:103200009927909389008093880090938B008093F6
:103210008A0090938D0080938C004091CD02509154
:10322000CE026091CF027091D0028FE090E00E94B8
:10323000EE2C60911203709113038091140390910E
:1032400015030E94B80B0E948C176C01F701828154
:1032500081117BC00B32110539F008F0B1C1C801F2
:103260000497849708F0B7C1F7018281882309F495
:10327000CBC180911A0180FF9DC09091C502911130
:1032800099C01093510200935002D0924F02C09205
:103290004E02846080931A0182E00E944A0C39C079
:1032A00081E122C60D322DE5120721F160F40C32C6
:1032B0008DE5180741F6F7018281882351F181E0FD
:1032C0000E94581826C00E329DE5190781F10F3271
:1032D000EDE51E0709F0B7CFF70182818823C9F019
:1032E0000E945B1881E00E94581821E04FEF6FEFB9
:1032F0008BE10DC0F7018281882359F00E945B1891
:1033000081E00E94581821E04FEF6FEF8CEA0E9495
:10331000C7148091C202877009F41ACFF701828125
:10332000882309F415CF82E00E944A0C11CFF701DF
:103330008281882371F30E945B1881E00E945818F3
:1033400021E040E86FEF86E5E2CF80911A0182FF2D
:1033500005C0B60190E080E00E946C088091C40234
:103360008D7F8093C4020931FCE51F0709F482C0F8
:1033700080F407313CE5130709F472C008318CE58D
:10338000180709F067CF80911801909119010597EE
:103390006CC00B319CE5190709F45EC008F455C0F8
:1033A00080911A018E7F0C31FCE51F0709F052CF86
:1033B00080931A01F7019281992309F4B6C51092FE
:1033C0004E030230FCE51F0708F41EC206312CE54F
:1033D000120738F098012B5F3C452730310508F083
:1033E00013C20E94A70D9093E0028093DF020F307A
:1033F0003CE5130709F4E9C108F063C108309CE516
:10340000190709F4CCC108F038C10430FCE51F07E6
:1034100009F4B9C108F01EC102303CE5130709F4F4
:10342000AAC103301C4509F4AAC16091DF021091C2
:10343000E00284E090E00E94DC2C612F81E290E0C9
:103440000E94DC2C0E94730E64CF90911A01892F88
:103450008E7F90FF8160ACCF80911A018160A8CFF0
:10346000809118019091190105969093190180930C
:103470001801A0CF809119018F93809118018F932B
:1034800088E291E09F938F931F9288E08F939F92A1
:103490008F920E94292A0FB6F894DEBF0FBECDBFCF
:1034A00064015AE0452EF6012081222309F482CFDF
:1034B000213009F046C091818281913049F4F2E0D7
:1034C000CF0ED11C0E941A0D2FEFC21AD20AEBCFD9
:1034D000923031F422E0C20ED11C0E94F207F4CFE8
:1034E000933031F432E0C30ED11C0E94C007ECCF00
:1034F000943021F08FEFC81AD80AE6CF92E0C90EB7
:10350000D11C30E020E0A6014F5F5F4F8053990B44
:103510008A30910550F021503109B0F28FE99FE0D7
:103520000197F1F700C00000F6CF429EB001439E24
:10353000700D11249C01260F371FF60181816A014D
:10354000E2CFE22FF0E0EF52FD4F5490822F8695AC
:103550008695869590E0FC01EF53FD4F64902770AF
:10356000712C022E02C0759467940A94E2F7E1E090
:103570006E227724FC01EF54FD4FA490B12C02C0C1
:10358000B594A7942A95E2F7F1E0AF22BB24611429
:10359000710419F081EE0E94F207A114B10419F030
:1035A00086EE0E94F207852D0E941A0DAB2819F0B5
:1035B00086EE0E94C007672809F486CF81EE95CF7A
:1035C0000D32110540F00933110508F44DCE0436D3
:1035D000110509F449CE043FFCE51F0761F1C8F469
:1035E000093D3CE5130719F10A3D8CE5180779F10F
:1035F000083D9CE5190709F0DDCE26E241EE61EEBB
:10360000C7010E94981785CEB601C8010E946C08B8
:1036100080CE063FECE51E07B1F088F0073F2CE5B1
:10362000120709F0C7CE27E245EE66EEE9CF27E2A2
:1036300045EE65EEE5CF26E241EE60EEE1CF27E212
:1036400045EE64EEDDCF26E241EE62EED9CF28E210
:1036500041E0EFCF8091DF02806106309CE51907E1
:1036600009F447C08091DF02886007301C4508F4E8
:1036700040C08091DF0280623CC00B30FCE51F0738
:1036800009F49BC068F409303CE5130709F48BC0CA
:103690000A301C4509F0C9CE8091DF028C6029C038
:1036A0008091DF028B7F0D309CE5190711F180912D
:1036B000DF028D7F0E301C45E0F08091DF02877FB6
:1036C00018C00B3FFCE51F0709F461C060F502312B
:1036D0003CE5130709F481C078F400319CE5190733
:1036E00009F477C08091DF028F7B01311C4509F01E
:1036F0009CCE8093DF0299CE0431FCE51F0709F4CC
:103700007AC008F470C005311C4509F08ECE809156
:10371000DF0282FB992790F921E0922790FB82F942
:1037200090FB83F9E6CF0E3F8CE5180709F449C0FA
:1037300070F40C3FECE51E0771F18091E0028E7F82
:103740000D3F1C4509F071CE8093E0026ECE01154D
:103750002DE5120709F44BC060F101301D4509F059
:1037600064CE8091E002982F909591708E7F892B86
:1037700090FB81F9E9CF8091DF028160BACF80911F
:10378000DF028260B6CF8091DF028460B2CF809189
:10379000E0028160D9CF8091E0028260D5CF809134
:1037A000DF028064A6CF0E94730E8091DF028068E2
:1037B000A0CF8091E0028360C7CF8091DF028E7F2F
:1037C00098CF8091E0028D7FBFCF8091DF028F7E06
:1037D00090CF8091DF028F7D8CCF0E94730E8091FD
:1037E000DF028F7786CF8091DF02837F82CF809147
:1037F000E0028C7FA9CF0E94730E9091DF02892F87
:1038000097FB87F9805875CF8091C5020631ECE5AA
:103810001E0709F098C38A7A91E009F490E090932A
:10382000520269E2811165E386E991E00E9439065E
:103830000E94C1066ECD8091FB0280FF1BC08E7F6F
:103840008093FB026091FB027091FC028091FD026B
:103850009091FE020E94B50D10920103FFEF20E748
:1038600032E0F15020403040E1F700C000000E94FB
:103870008D114FCD0E945B184CCD43E658E16CE6AC
:1038800078E10E94BA0845CD4CE658E163E678E15C
:10389000F8CF4DE855E166E975E1F3CF46E955E12A
:1038A0006DE875E1EECF45E755E161E875E1E9CFF7
:1038B00041E855E165E775E1E4CF4DE555E169E69D
:1038C00075E1DFCF49E655E16DE575E1DACF47EC0B
:1038D0005DE068ED7DE0D5CF48ED5DE067EC7DE033
:1038E000D0CF65E082E00E94761813CD68E086E0D4
:1038F000FACF6EE089E0F7CF64E18FE0F4CF67E1C3
:1039000085E1F1CF88E1DCCC62E289E1ECCF83E2B2
:10391000D7CC0F3D8CE5180709F446C00930EDE51A
:103920001E0709F444C001151C4509F047C00E9458
:10393000730E2FEF34E38CE0215030408040E1F7EC
:1039400000C00000F89481E08093E00080E2809362
:10395000D8001092C900EFE1FEE43197F1F700C002
:1039600000001DBA109268001CBC10BE1FBA109255
:103970007A0010926E0010926F00109271001092F7
:1039800072001092C9001092BC0014B817B81AB88F
:103990001DB810BA1092BC0015B818B81BB81EB8E4
:1039A00011BA0C94003FB5CC0E94F80DB2CC8091B6
:1039B000180391E0892780931803ABCCF7010081AD
:1039C0001181992309F43DC0C8010E94330BD82E00
:1039D000682FC8010E942F07B8018D2D0E94A809E9
:1039E0008C01682EF701A580A2944FE0A422D2801A
:1039F000D1101092C4028091C202877099F0DD202C
:103A000089F0812F807F803421F080E2800F883020
:103A100048F082E00E944A0C8091C2028770CC2458
:103A2000C3948111C12CB12EB2943FE0B322FBE0CC
:103A3000FB1508F440C0EB2DF0E0EC56F24D0C9471
:103A40004928C8010E940607D82EC6CF212F2F7003
:103A5000A22E107F19F0A29420EFA222DD20C9F03F
:103A6000AA2069F080E2800F883010F061100BC04E
:103A70008091C502A82AA092C5020E94C106802F8B
:103A80000E94F20718C08091C402A82AA092C40222
:103A9000F4CF802F0E94C007AA2069F0A094005E96
:103AA000083010F0611045C08091C502A822A09294
:103AB000C5020E94C1062B2D2850330B243031053E
:103AC00010F40E946008CC20A9F08091C20280FD11
:103AD00011C0F70112828595859585950E94620C2B
:103AE000C7010E9483188091C202859585958595AE
:103AF0000E94270C85E0F701D40101900D928A9570
:103B0000E1F789819A810E9406079A81E981F0E0B4
:103B100026E0929FE00DF11D112434E5839FE00D16
:103B2000F11D1124EE0FFF1FEF5AFC4F8591949168
:103B30000FCB8091C402A822A092C402BACF312F29
:103B40003F70732E107F103219F0729490EF79222B
:103B5000662041F081E0681631F1DD2079F1AA207C
:103B600041F18DCFDD2091F09091C602872D892BF8
:103B7000A11003C00E9472079ECFE1E0AE12FACFFF
:103B8000891709F498CF8093C60295CFA11006C07B
:103B90000E94BB06872D0E9467078DCFF1E0AF160C
:103BA00009F489CFF5CFDD2031F021E02A1508F4A2
:103BB00082CF872DDFCFA1107ECFECCFAA2051F38B
:103BC00039E3631284C18FEF97EEE3E081509040B8
:103BD000E040E1F700C000007AC1812F869586950C
:103BE000837061F0813009F066CFC8019370D11005
:103BF00002C090E080E00E947C075DCFC801937016
:103C0000D11002C090E080E00E94920754CF812F33
:103C1000837009F066C0D1104ECF802F82958695B3
:103C20008770880F880F602F6F70462E512C712C73
:103C3000612C082E04C0440C551C661C771C0A9489
:103C4000D2F740E050E0BA0104FF0FC04FE050E06F
:103C500060E070E004C0440F551F661F771F8A950F
:103C6000D2F74095509560957095812F86958695F1
:103C70008370823019F1D8F40091C7021091C80204
:103C80002091C9023091CA02813069F04429552936
:103C900066297729CB01BA016023712382239323FC
:103CA0000E94B60708CF402A512A622A732ACB0104
:103CB000BA016429752986299729F2CF4429552903
:103CC000662977290091C7021091C8022091C90284
:103CD0003091CA02CB01BA0160277127822793274E
:103CE000DFCF8695DD2011F0812F8170882309F4C4
:103CF000E2CE802F829586958770880F880F602F7F
:103D00006F70462E512C712C612C082E04C0440C6F
:103D1000551C661C771C0A94D2F740E050E0BA01AB
:103D200004FF0FC04FE050E060E070E004C0440FBB
:103D3000551F661F771F8A95D2F74095509560955D
:103D40007095812F869586958370823019F1D8F40D
:103D50000091120310911303209114033091150365
:103D6000813069F04429552966297729CB01BA01A8
:103D700060237123822393230E94EC0B9CCE402A64
:103D8000512A622A732ACB01BA016429752986292E
:103D90009729F2CF442955296629772900911203E2
:103DA000109113032091140330911503CB01BA0134
:103DB0006027712782279327DFCF1F70DD2029F02E
:103DC000812F0E94620C802FD5CE802F0E94670722
:103DD000812F0E94270C6FCE802FF2EF6F1609F40F
:103DE0004EC0F61578F020EF621619F131EF631628
:103DF00009F43DC0DD2009F465C0A11040CE812F3B
:103E00008F713AC093EF691609F43EC0E4EF6E1269
:103E1000F1CFDD2009F44BC01F71812F0E94620C8D
:103E200028E0129FC001112483608093C202812F79
:103E300023C0DD20B9F0A1103ECE1F7161E070E01B
:103E400080E090E004C0660F771F881F991F1A95C5
:103E5000D2F70091120310911303209114033091B3
:103E60001503A6CFF1E0FA1508F425CEE6CF812F91
:103E70008F71DD2009F4ADCF0E94620C1CCE812F22
:103E80008F71DD20C9F3A5CF60E070E0CB01DD20AC
:103E900009F472CF1F7161E070E080E090E004C02F
:103EA000660F771F881F991F1A95D2F765CF81E09B
:103EB0000E944A0C31E03A1508F0FDCD82E00E94E4
:103EC0004A0CF9CDAA2039F0893309F47CCE802F31
:103ED0000E94C007F0CD812F8F717BCF1982F7012F
:103EE00082818111DDC982E18A83F70180818B8320
:103EF00081818C838EEF8D8365E0C4010E94F7057C
:103F000060C985E09E012F5F3F4F4901D9010190B3
:103F10000D928A95E1F7F701228189819A81211119
:103F20002EC90E940607082F32C906311C4509F028
:103F300045CD8091520269E2811165E386E991E005
:103F40000E940F0675CC8272F801E35CFC45E431F7
:103F5000F10508F0DECCE056F24D0C9449281F9391
:103F6000CF93DF9380915802807FA9F4809155020E
:103F7000882389F080918A02D0915902609153027E
:103F800070915402A0915602B0915702C62FC723D8
:103F900016E0D81304C0DF91CF911F91089590E0EF
:103FA000109711F0CF3F19F401968770F2CF189F48
:103FB0009001199F300D1124F901E65AFD4F4181FE
:103FC0004713F2CF40814613EFCF42814111ECCF2E
:103FD000438154814A1B5B0B483C510528F7809173
:103FE00058028F70806180935802F901E15AFD4FA9
:103FF00080818F708061808383E592E00E948318C6
:10400000DF91CF911F910C945D07AF92BF92CF9239
:10401000DF92EF92FF920F931F93CF93DF93CDB771
:10402000DEB761970FB6F894DEBF0FBECDBF8C012F
:1040300085E0F801DE011D9601900D928A95E1F769
:10404000F80180819181E28023E5A22E22E0B22E48
:1040500060915602709157026115710509F43EC1D5
:104060003091530240915402232F24232F3F09F40F
:1040700035C1C380D480F0905502F601E61BF70BE2
:10408000FF2009F4FBC020915802522F507FE83CDA
:10409000F10508F0BBC0511178C0FE2C491321C0B6
:1040A00038131FC0E1101DC02F70206120935802EB
:1040B000C5010E94831880915802F80185838F2DD5
:1040C00061960FB6F894DEBF0FBECDBFDF91CF91E2
:1040D0001F910F91FF90EF90DF90CF90BF90AF9026
:1040E0000895CD2829F0282F29232F3F09F014C146
:1040F00020E0F22FF170DF2E20FF3DC020918A02D8
:104100004091590256E0241315C08D879E878D85F6
:104110009E850E94750B292F22952F702230F8F072
:10412000243020F59F70F9F0F8019581907FD9F443
:10413000D12C1FC030E0529FF001539FF00D11248D
:10414000E65AFD4F6181961306C06081861303C055
:104150006281E61210C02F5F3F4F2770D4CF9F704F
:1041600011F0882329F3805E883010F3C8010E9483
:104170008318FD2CA4CFEE2009F4A1CF8091580222
:10418000816080935802F12C9ACF491312C03813E2
:1041900010C0E1100EC0F8012583C8010E948318E9
:1041A00086E0F801A3E5B2E001900D928A95E1F76F
:1041B00086CF8D879E878D859E850E947F0B882365
:1041C00009F1EE20F9F080915802803270F02091D0
:1041D00053023091540238872F831986DB86CA86B2
:1041E0008C87CE0107960E94831886E0F801A3E52C
:1041F000B2E001900D928A95E1F70E94AF1FFF2473
:10420000F3945DCFC8010E948318F9CF51110AC001
:1042100083E592E00E94831886E0F50111928A9569
:10422000E9F7B1CF49130FC038130DC0E1100BC02F
:10423000F8012583C8010E94831886E0F5011192D8
:104240008A95E9F73CCF8D879E878D859E850E9454
:104250007F0B8823B9F2EE20A9F2809158028032B8
:1042600020F220915302309154023A8329831B8219
:10427000DD82CC828E83CE010196B5CFE83CF1057C
:10428000E0F6FE2CEE2009F4BDCF491316C038131A
:1042900014C08091580280FD83CF982F907F09F43D
:1042A0007FCFF8018583903F09F477CF982F907FD7
:1042B000905F8F70892B858370CF8D879E878D85CA
:1042C0009E850E947F0B811190CF80915802816062
:1042D00080935802C8010E948318F1CEEE2009F4A1
:1042E00091CF8D879E878D859E850E947F0BF82EAE
:1042F000882309F487CF86E0F801A3E5B2E00190B6
:104300000D928A95E1F780915302909154020E9498
:10431000750B0E94AF1FD3CE21E02E25EACE1F934E
:10432000CF93DF93CDB7DEB767970FB6F894DEBFB4
:104330000FBECDBF4B8B5C8B6D8B7E8B8F8B1A8AA8
:10434000198A85E0FE017396DE011D9601900D929B
:104350008A95E1F786E0FE013D96DE011796019011
:104360000D928A95E1F7CE0107960E9405208111F2
:1043700012C086E0FE013796DE01119601900D9283
:104380008A95E1F78A859B85892B29F08F8198850D
:1043900089238F3FB1F516E080918A0290915902EE
:1043A00089131DC067960FB6F894DEBF0FBECDBF50
:1043B000DF91CF911F91089596E0929FD001939F36
:1043C000B00D1124A65ABD4FFE01319601900D92F9
:1043D0009A95E1F7809359020E945D07DCCF819F97
:1043E000C0011124865A9D4F0E9405208823D1F2D6
:1043F00080918A0290E001968770992780938A02C3
:10440000CBCF2091590230E0C901019687709927DE
:1044100040918A024817190679F60E94730E10928D
:10442000590210928A0286E0E3E5F2E0DF011D9274
:104430008A95E9F7B0CF8F929F92BF92CF92DF9289
:10444000EF92FF920F931F93CF93DF9380911B0105
:1044500090911C01892B91F08091B7018F5F80931F
:10446000B70181110BC00E949F1590E090931C0131
:1044700080931B01892B11F40E942D0D21ED822EBA
:1044800022E0922E740110E000E097E0C92EC00EE9
:10449000802F0E9439118C2D0E943911802F0E948B
:1044A0001616E70199917E01D12C891729F0FE019A
:1044B00031978083DD24D3948C2D0E941616F7014A
:1044C0009681891709F47CC0868381E08D29182B99
:1044D0000E94830C0F5F0730C1F60E948C17609119
:1044E000B9017091BA019093BA018093B9012091FA
:1044F000B80130E0261B370B820F931F6BEF70E083
:104500000E942128E82E392F082F8093B801F090BF
:10451000BC01FF2009F4A5C01092BC01E091CB02C0
:10452000F091CC02AF01425F5F4F20E08BEFB82EDD
:104530006BEF70E0A191AB3FA1F0CA2ED12C8E2D74
:10454000932F0A1708F43EC08C199D09092E000C00
:10455000AA0BBB0B4E97A105B105D0F1DF01119756
:10456000BC924E175F0731F72093BC01111102C0B6
:10457000211179C01092BB01A091CB02B091CC0265
:104580009091BC01E7EEF2E045EF52E080E031911E
:10459000E40129914E01321751F03C913B3FD1F497
:1045A0000C93BF0161507109EB01288391E01196D2
:1045B0004E175F0761F79093BC018093BB0157C012
:1045C00080E084CFDB01AC19BD098A0F9B1FBECFF1
:1045D0002F2DC7CF81E0EBCF9170892B09F473C0E9
:1045E0008091BE019091BF018130984780F0109278
:1045F000180360911203709113038091140390913A
:1046000015030E94B80B1092BF011092BE01809159
:10461000BE019091BF0101969093BF018093BE01AE
:10462000812FDF91CF911F910F91FF90EF90DF903D
:10463000CF90BF909F908F9008950E94B20B4AC078
:10464000892B71F31092BF011092BE016091120389
:104650007091130380911403909115030E94B80B7D
:10466000DFCF111187CF8091BB01811183CF809162
:104670001A0182FF17C00E948C1720914E023091C0
:104680004F02AC01421B530B2091180130911901CC
:104690004217530738F0BC018091500290915102AB
:1046A0000E946C088091BE019091BF012091180377
:1046B000222331F2009709F08FCF0E94A90B0E94AC
:1046C000A60B0E94A30BC091BD01CC2309F4B5CF6A
:1046D0000E94A60B81E0C827C093BD0181CFCDB752
:1046E000DEB7C955D1090FB6F894DEBF0FBECDBFF6
:1046F00084B7877F84BF0FB6F894A8958091600037
:10470000886180936000109260000FBE80E890E0A6
:104710000FB6F89480936100909361000FBE85B747
:10472000806885BF85B7806885BF0E9407040E94A6
:10473000D4048091E20084608093E20078948091B8
:104740003E038823A1F01091E9001F709091EC00C6
:10475000892F817090FD80E8182B1092E9008091DC
:10476000E80083FD0E94880E1F701093E90082E02C
:1047700084BD93E095BD9AEF97BD80936E000E9433
:104780009F1590E090931C0180931B010E94830C65
:104790000E94920CE1EDF2E0A7EEB2E011921D92C0
:1047A00022E0EF3DF207D1F78EE090E00E94F12881
:1047B0008093CB029093CC02FC010E962BEF2193B9
:1047C0008E179F07E1F790E080E00E94D62C8F3E85
:1047D0009E4F11F00E94F80D89EA8093800089E0D5
:1047E0008093810024982C983F988AB18F7C8AB955
:1047F0006E98479A8BB180638BB9769A8FE090E080
:104800000E94D02C6093CD027093CE028093CF0291
:104810009093D0026770FFEF6F9FB00111247595E0
:1048200067957595679577277093890060938800E1
:1048300070938B0060938A0070938D0060938C005E
:104840000E942D0D90E080E00E94D62C8F3E9E4F5E
:1048500011F00E94F80D82E090E00E94C82C809335
:1048600003030E94A70D9093E0028093DF0283E090
:1048700090E00E94C82C682F70E090E080E00E94D9
:10488000B607609112037091130380911403909105
:1048900015030E94B80B8091E102811136C090E0AF
:1048A00080E00E94D62C8F3E9E4F21F00E94F80D92
:1048B0000E94E90D88E090E00E94D02C6093FB02FA
:1048C0007093FC028093FD029093FE026E7F71F460
:1048D0000E94E90D88E090E00E94D02C6093FB02DA
:1048E0007093FC028093FD029093FE020E94BF0829
:1048F000109201038091FB0280FF04C060E0869566
:104900000E941D1881E08093E10260911203709172
:10491000130380911403909115030E94B80B8DE14D
:1049200091E09093E3028093E202B8E1EB2EF12C48
:1049300087EE92E01EE0B12EB80E01E4C02ED12C1D
:10494000CC0EDD1EF2E0CF0ED11C80913E038530EF
:1049500001F5A0E49A2E8824839400E112E180916D
:104960003E03853009F4EBC00E94730E0E9460087C
:104970001092E6028091E502882349F08091FB02C3
:1049800081608093FB0260E086950E941D180E9462
:1049900007180E941B22E4E0F3E0A7EEB2E010E06B
:1049A00000E0302F8D912191281709F430C190E05B
:1049B000992493942827422F492109F423C1619611
:1049C0009FAF619762963FAF6297892191E009F4AA
:1049D00090E063969FAF63970E948C178160782F59
:1049E00065969FAF8EAF659761964FAD6197629662
:1049F0005FAD629763966FAD639765968FAD659770
:104A00000E948F21F801EC5FFC4F808198269082F4
:104A100080910103882309F44CC080910003E09148
:104A2000FB02E695E81BE093F702823009F016C11D
:104A3000F0E0E65AFA4FE4910E2F10E0F3EA8F2EE1
:104A4000F4E19F2E8091F802882389F01092F802F9
:104A50000E948C17980120953095820F931F909398
:104A6000F6028093F5021092FA021092F902209158
:104A7000F5023091F6024FB7F89480914803909177
:104A80004903A0914A03B0914B034FBF821B930B84
:104A90008017910770F0E091F502F091F6020E0F89
:104AA0001F1F1093F6020093F50285EF92E0F401C8
:104AB00009950E94600890910203891721F00E94D5
:104AC00060088093020380913E03843009F03DCF5B
:104AD0008093E9008091E80082FF37CF8091E80061
:104AE00090E085FF06C00E942604882309F422C1B5
:104AF00091E08091E8008B778093E800992309F496
:104B000024CF1981111132C180911803882309F42F
:104B100048C11092180381E08093170322961FAEBC
:104B2000229723961FAE23978EEF24968FAF24975C
:104B300063E0CE018F5B9F4F0E94F70506CF809107
:104B40003E03843009F43DC01092E4020FB6F8949D
:104B5000A895E09260000FBE909260001092010351
:104B60008091E602811116C08092E6028091FB02DC
:104B7000982F91709093E5028E7F8093FB022FEF28
:104B800080E792E0215080409040E1F700C00000B3
:104B90000E948D1183B7817F846083BF83B781605A
:104BA00083BF7894889583B78E7F83BF0FB6F894C0
:104BB000A8958091600088618093600010926000E9
:104BC0000FBE80913D03882309F4C9CE0E949F1532
:104BD00090E090931C0180931B010E94830C0E9423
:104BE000920CE7EEF2E0119222E0E53FF207D9F7EE
:104BF0000E941B22E7EEF2E08191811112C1BE12E8
:104C0000FBCFADCE9F5F990C963009F0D4CE0F5FED
:104C10001F4F0E30110509F0C4CE8FEF66968FAF8F
:104C2000669767968FAF679768961FAE68970E94E2
:104C30008C178160782F6A969FAF8EAF6A976696C1
:104C40004FAD669767965FAD679768966FAD68974B
:104C50006A968FAD6A970E948F21DACE863059F41A
:104C6000F0E0E95AFA4FE4910E2F10E0E7EB8E2EB8
:104C7000E4E19E2EE7CE893061F4E695F0E0EC5A4F
:104C8000FA4FE4910E2F10E07BE8872E72E1972E09
:104C9000D9CE8F3061F4E695F0E0EF5AFA4FE49107
:104CA0000E2F10E065EB862E62E1962ECBCE85317D
:104CB00059F4F0E0E25BFA4FE4910E2F10E054E279
:104CC000852E53E1952EBECE08E210E024E7822E19
:104CD00023E1922E883109F4B5CE833249F4ECE415
:104CE000F5E00591149148E4842E44E1942EAACE77
:104CF00004EF11E09DEF892E93E1992E843209F49F
:104D0000A1CE853281F48E2F63E00E940728E92F1F
:104D1000F0E0E75BFA4FE4910E2F10E032E0832ED3
:104D200032E1932E8FCE00ED17E082EF882E85E0E2
:104D3000982E88CE00E410E0CE0101964C018091BF
:104D4000E80085FD0AC08091E8008B778093E80039
:104D50000E942604882399F3CBCE8091F100F401C0
:104D600081934F010150110951F7C2CE1130C9F49E
:104D700022961FAE229723961FAF23978CE0EDE279
:104D8000F1E0D60101900D928A95E1F78EEF6096E1
:104D90008FAF60976FE0CE018F5B9F4F0E94F7054A
:104DA000D4CD809117038823D1F1123041F0133014
:104DB000F9F081E022968FAF229761E0BACE609140
:104DC00012037091130380911403909115030E94B4
:104DD0006E0622961FAE229723961FAF2397249626
:104DE0008FAF24978EEF25968FAF259764E0A1CEE5
:104DF0008A81813041F0882341F08230D1F681E010
:104E00008093160302C01092160322961FAE2297BB
:104E100083E023968FAF239780911603E0CF8FEF27
:104E2000C9CF09BD19BD09B400FEFDCF8091D800DE
:104E30008F7D8093D8008091E00082608093E000B5
:104E40008091E00081FDFCCF0E94730E88CD1F92FF
:104E50001FB61F9211248F939F93AF93BF9380919E
:104E6000E402811113C08091480390914903A091FD
:104E70004A03B0914B034196A11DB11D8093480395
:104E800090934903A0934A03B0934B03BF91AF9112
:104E90009F918F911F901FBE1F9018951092B9007F
:104EA0008CE08093B8000895EF92FF920F931F93C8
:104EB000CF93DF93182FEB011092BC0084EA80930C
:104EC000BC000E948C177C018091BC0087FF27C02A
:104ED0008091B900887F883029F08091B900887F5F
:104EE0008031D9F51093BB0084E88093BC000E9408
:104EF0008C178C018091BC0087FF24C02091B900E1
:104F0000287F90E080E02831B1F081E090E020340B
:104F100011F490E080E09195819591090CC0CF3F0C
:104F2000DC0791F20E948C178E199F098C179D0740
:104F300058F28EEF9FEFDF91CF911F910F91FF906D
:104F4000EF900895CF3FDC07A9F20E948C17801BD9
:104F5000910B8C179D0770F2ECCF8FEF9FEFEBCF8B
:104F60000F931F93CF93DF93EB018093BB0084E8F3
:104F70008093BC000E948C178C018091BC0087FF3D
:104F800011C02091B900287F81E090E0283211F40F
:104F900090E080E0919581959109DF91CF911F91EB
:104FA0000F910895CF3FDC0741F30E948C17801BBF
:104FB000910B8C179D0708F38EEF9FEFEECF0F93A9
:104FC0001F93CF93DF93EC0184E88093BC000E9491
:104FD0008C178C018091BC0087FF08C08091BB00BA
:104FE00090E0DF91CF911F910F910895CF3FDC07A3
:104FF00089F30E948C17801B910B8C179D0750F32F
:105000008EEF9FEFEECF84E98093BC000895991B4B
:1050100079E004C0991F961708F0961B881F7A95AF
:10502000C9F78095089587FB082E062687FD819590
:1050300067FD61950E9407280EF4919507FC819504
:105040000895AA1BBB1B51E107C0AA1FBB1FA617CF
:10505000B70710F0A61BB70B881F991F5A95A9F721
:1050600080959095BC01CD01089597FB072E16F40D
:10507000009407D077FD09D00E94212807FC05D0B5
:105080003EF4909581959F4F0895709561957F4F5F
:105090000895EE0FFF1F0590F491E02D09940E94F2
:1050A000642D332312F48A1B9B0B0C9459280E9405
:1050B000642DB7FF0895821B930B08952F923F92A2
:1050C0004F925F926F927F928F929F92AF92BF9218
:1050D000CF92DF92EF92FF920F931F93CF93DF93C4
:1050E000CDB7DEB7CA1BDB0B0FB6F894DEBF0FBE21
:1050F000CDBF09942A88398848885F846E847D846E
:105100008C849B84AA84B984C884DF80EE80FD806F
:105110000C811B81AA81B981CE0FD11D0FB6F894E5
:10512000DEBF0FBECDBFED0108958F929F92AF926B
:10513000BF92CF92DF92EF92FF92CF93DF93EC0179
:10514000688179818A819B8161157105810591054D
:1051500021F464E279ED8BE597E02DE133EF41E056
:1051600050E00E94102D49015A019B01AC01A7EAB1
:10517000B1E40E942F2D6B017C01ACEEB4EFA501D0
:1051800094010E943D2DDC01CB018C0D9D1DAE1DB7
:10519000BF1DB7FF03C00197A109B0488883998359
:1051A000AA83BB839F77DF91CF91FF90EF90DF9031
:1051B000CF90BF90AF909F908F9008950E949528B8
:1051C000089580E091E00E9495280895B0E0A0E065
:1051D0008093000190930101A0930201B093030119
:1051E00008950F931F93CF93DF938230910510F4AE
:1051F00082E090E0E0915103F091520330E020E032
:10520000B0E0A0E0309799F42115310509F447C0CA
:10521000281B390B24303105C0F58A819B8161152B
:10522000710571F1FB0193838283FE0111C04081FE
:1052300051810281138148175907F8F0481759071F
:1052400099F4109761F012960C93129713961C9391
:105250003296CF01DF91CF911F910F910895009366
:10526000510310935203F4CF2115310519F0421761
:10527000530718F49A01BD01EF01DF01F801C2CF15
:105280009093520380935103D0CFFE01E20FF31F9E
:10529000819391932250310939832883DACF209169
:1052A0004F0330915003232B41F42091060130919C
:1052B00007013093500320934F0320910401309154
:1052C00005012115310541F42DB73EB74091080184
:1052D00050910901241B350B40914F03509150030D
:1052E0004217530708F0B5CF241B350B2817390791
:1052F00008F4AFCFBC016E5F7F4F2617370708F465
:10530000A8CF640F751F7093500360934F03FA0189
:10531000819391939ECFCF93DF930097E9F0FC01A7
:10532000329713821282C0915103D0915203DE0151
:1053300030E020E02097A1F420813181820F931F7B
:1053400020914F03309150032817390709F067C0A7
:10535000F0935003E0934F03DF91CF910895DA016A
:10536000AE17BF0708F040C012964D915C9113979D
:105370009D014115510599F7D9011396FC93EE93C0
:1053800012974D915D91A40FB51FEA17FB0779F4B1
:10539000808191810296840F951FD90111969C936B
:1053A0008E938281938113969C938E931297B0E093
:1053B000A0E08A819B810097B9F5FE0181919191CE
:1053C000E80FF91F80914F03909150038E179F07AC
:1053D00019F6109761F51092520310925103D09371
:1053E0005003C0934F03B8CFB383A2834081518150
:1053F000840F951FA817B90771F44E5F5F4F8D9109
:105400009C911197480F591F5183408312968D919B
:105410009C91938382832115310509F0ADCFF093E0
:105420005203E093510398CFDE01EC01C2CF1396F3
:105430001C921E921297D3CFFC014150504030F085
:1054400001900616D1F73197CF0108958827992743
:105450000895AEE0B0E0EFE2FAE20C946C280D891A
:105460001E898F89988D26E02C831A83098397FFE4
:1054700002C080E090E801979E838D83AE01455E77
:105480005F4F698D7A8DCE0101960E94592A4D8118
:105490005E8157FD0AC02F813885421753070CF4EF
:1054A0009A01020F131FF80110822E96E4E00C946B
:1054B0008828ABE0B0E0EFE5FAE20C945E287C01CE
:1054C0003B018A01FC0117821682838181FFB9C1E9
:1054D0009AE0292ECE0101965C01F7019381F30138
:1054E00093FD859193FF81913F01882309F446C183
:1054F000853239F493FD859193FF81913F01853287
:1055000029F4B70190E00E943A2CE7CF912C412C6E
:10551000512CFFE1F51538F08B3209F188F4803217
:1055200001F1833221F157FC3AC020ED280F2A30D7
:1055300040F556FE1FC0929C200D1124922E06C0ED
:105540008D3291F0803379F7689450F8F30193FD30
:10555000859193FF81913F018111DBCF20C0689439
:1055600051F8689452F8F2CF689453F8EFCF6894EA
:1055700054F8ECCF429C200D1124422E689455F82B
:10558000E5CF8E3229F456FCF9C0689456F8DECF88
:105590008C3619F4689457F8D9CF8836B9F2982F19
:1055A0009F7D95549330C0F08336A1F18337C1F1CC
:1055B000833509F05BC0F801C190D1908F01692D4E
:1055C00070E056FC02C06FEF7FEFC6010E94242CF2
:1055D0004C01689457F80AC00C5F1F4F2FE32983D2
:1055E00088248394912C6501E89457F853FC04C0F7
:1055F0004814190409F018F5342C8114910431F57C
:10560000332009F46ACFB70180E290E00E943A2C7F
:105610003A94F6CFF801808189830E5F1F4FE0CF67
:10562000F801C190D1908F01692D70E056FC02C045
:105630006FEF7FEFC6010E942F2C4C01D5CFB70131
:1056400080E290E00E943A2C4A94D2CFF60157FCB7
:10565000859157FE81916F01B70190E00E943A2C2D
:1056600031103A94F1E08F1A9108C7CF843619F0BF
:10567000893609F074C0F80157FE6AC061917191D2
:10568000819191918F01252D2F76D22E97FF09C000
:1056900090958095709561957F4F8F4F9F4F68943F
:1056A000D7F82AE030E0A5010E946A2CC82ECA185B
:1056B0008C2C5D2CD6FE0CC0E89450F8C91440F434
:1056C000D4FE05C0D2FC03C0FD2DFE7E5F2E892CCA
:1056D00054FE8FC0FE01EC0DF11D8081803309F076
:1056E00081C0252D297E522E852D8870382E53FCA1
:1056F0008FC050FE89C09C2C841418F44C0C942C40
:10570000981854FE8BC0B70180E390E00E943A2CB9
:1057100052FE09C088E790E051FE02C088E590E0A3
:10572000B7010E943A2CC91408F484C0CA94D12C41
:105730009FEFC91AD90ACA0CDB1CF60182916F01CE
:10574000B70190E00E943A2CAC14BD04B1F758CFD9
:1057500061917191072E000C880B990B93CFD52C7A
:10576000E894D4F82AE030E0853739F1952D997F17
:10577000D92E8F3601F148F48835A9F0F7018681DA
:1057800097812B96E2E10C947A28803749F088378C
:10579000A9F7D4FE02C06894D2F820E130E00DC031
:1057A0006894D4F8F6CF54FE03C0E92FE660DE2EED
:1057B00020E132E002C028E030E0F801D7FE0DC061
:1057C00061917191819191918F01A5010E946A2C43
:1057D000C82ECA18E894D7F86BCF6191719190E008
:1057E00080E0F2CF52FC02C083947ECF83948394F6
:1057F0007BCF852D867809F477CFF6CFB70180E28D
:1058000090E00E943A2C83948414C0F3312C79CF19
:10581000342C3818841408F474CFF8CF852D86788A
:1058200009F481CF8BE251FE80E257FC8DE2B70193
:1058300090E077CFB70180E390E00E943A2C9A94F1
:1058400072CF8FEF9FEF9DCFFC01059061507040AC
:105850000110D8F7809590958E0F9F1F0895FC0139
:105860006150704001900110D8F7809590958E0F8F
:105870009F1F08950F931F93CF93DF93182F092F26
:10588000EB018B8181FD09C01FEF0FEF812F902F5E
:10589000DF91CF911F910F91089582FF14C02E8147
:1058A0003F818C819D81281739073CF4E881F9817B
:1058B000CF0101969983888310838E819F81019601
:1058C0009F838E83E3CFE885F985812F0995892B06
:1058D000A1F3DACFFA01AA27283051F1203181F162
:1058E000E8946F936E7F6E5F7F4F8F4F9F4FAF4FE8
:1058F000B1E03ED0B4E03CD0670F781F891F9A1FFB
:10590000A11D680F791F8A1F911DA11D6A0F711DAE
:10591000811D911DA11D20D009F468943F912AE0BA
:10592000269F11243019305D3193DEF6CF010895A2
:10593000462F4770405D4193B3E00FD0C9F7F6CFD3
:10594000462F4F70405D4A3318F0495D31FD40529B
:10595000419302D0A9F7EACFB4E0A6959795879531
:1059600077956795BA95C9F7009761057105089510
:105970009B01AC010A2E06945795479537952795BC
:10598000BA95C9F7620F731F841F951FA01D089554
:10599000F999FECF92BD81BDF89A992780B50895F7
:1059A000A6E1B0E044E050E00C94022DA8E1B0E0A4
:1059B00042E050E00C94022D262FF999FECF92BDC3
:1059C00081BDF89A019700B4021639F01FBA20BDC4
:1059D0000FB6F894FA9AF99A0FBE08950396272FF6
:1059E0000E94DD2C0E94DC2C252F0E94DD2C242F10
:1059F0000C94DD2C0196272F0E94DD2C0C94DC2CBE
:105A0000DC01CB01FC01F999FECF06C0F2BDE1BD7E
:105A1000F89A319600B40D9241505040B8F708956D
:105A2000052E97FB1EF400940E94272D57FD07D0EA
:105A30000E94422D07FC03D04EF40C94272D509564
:105A40004095309521953F4F4F4F5F4F089590956A
:105A50008095709561957F4F8F4F9F4F08950E945D
:105A6000642DA59F900DB49F900DA49F800D911D56
:105A700011240895B7FF0C942F2D0E942F2D821B07
:105A8000930B0895A1E21A2EAA1BBB1BFD010DC0AA
:105A9000AA1FBB1FEE1FFF1FA217B307E407F507DE
:105AA00020F0A21BB30BE40BF50B661F771F881FBA
:105AB000991F1A9469F760957095809590959B0150
:105AC000AC01BD01CF010895A29FB001B39FC001F9
:105AD000A39F700D811D1124911DB29F700D811D1A
